{
  "abi": [
    {
      "type": "constructor",
      "inputs": [
        {
          "name": "initialOwner",
          "type": "address",
          "internalType": "address"
        },
        {
          "name": "accessTokenFactory",
          "type": "address",
          "internalType": "address"
        },
        {
          "name": "rentCurrencies",
          "type": "address[]",
          "internalType": "address[]"
        },
        {
          "name": "treasury",
          "type": "address",
          "internalType": "address payable"
        },
        {
          "name": "feePoints",
          "type": "uint256",
          "internalType": "uint256"
        }
      ],
      "stateMutability": "nonpayable"
    },
    {
      "type": "function",
      "name": "ACCESS_TOKEN_FACTORY",
      "inputs": [],
      "outputs": [
        {
          "name": "",
          "type": "address",
          "internalType": "contract AccessTokenFactory"
        }
      ],
      "stateMutability": "view"
    },
    {
      "type": "function",
      "name": "MAX_POINTS",
      "inputs": [],
      "outputs": [
        {
          "name": "",
          "type": "uint256",
          "internalType": "uint256"
        }
      ],
      "stateMutability": "view"
    },
    {
      "type": "function",
      "name": "NATIVE_TOKEN",
      "inputs": [],
      "outputs": [
        {
          "name": "",
          "type": "address",
          "internalType": "address"
        }
      ],
      "stateMutability": "view"
    },
    {
      "type": "function",
      "name": "addRentCurrencies",
      "inputs": [
        {
          "name": "rentCurrencies",
          "type": "address[]",
          "internalType": "address[]"
        }
      ],
      "outputs": [],
      "stateMutability": "nonpayable"
    },
    {
      "type": "function",
      "name": "delist",
      "inputs": [
        {
          "name": "args",
          "type": "tuple",
          "internalType": "struct IMarketplaceStructs.DelistArgs",
          "components": [
            {
              "name": "accessToken",
              "type": "address",
              "internalType": "address payable"
            },
            {
              "name": "tokenId",
              "type": "uint256",
              "internalType": "uint256"
            }
          ]
        }
      ],
      "outputs": [],
      "stateMutability": "nonpayable"
    },
    {
      "type": "function",
      "name": "endLease",
      "inputs": [
        {
          "name": "args",
          "type": "tuple",
          "internalType": "struct IMarketplaceStructs.EndLeaseArgs",
          "components": [
            {
              "name": "accessToken",
              "type": "address",
              "internalType": "address"
            },
            {
              "name": "tokenId",
              "type": "uint256",
              "internalType": "uint256"
            },
            {
              "name": "tenant",
              "type": "address",
              "internalType": "address"
            }
          ]
        }
      ],
      "outputs": [],
      "stateMutability": "nonpayable"
    },
    {
      "type": "function",
      "name": "getListingInfo",
      "inputs": [
        {
          "name": "accessToken",
          "type": "address",
          "internalType": "address"
        },
        {
          "name": "tokenId",
          "type": "uint256",
          "internalType": "uint256"
        }
      ],
      "outputs": [
        {
          "name": "",
          "type": "tuple",
          "internalType": "struct IMarketplaceStructs.ListingInfo",
          "components": [
            {
              "name": "owner",
              "type": "address",
              "internalType": "address"
            },
            {
              "name": "minRentalDays",
              "type": "uint256",
              "internalType": "uint256"
            },
            {
              "name": "maxRentalDays",
              "type": "uint256",
              "internalType": "uint256"
            },
            {
              "name": "rentCurrency",
              "type": "address",
              "internalType": "address"
            },
            {
              "name": "dailyRent",
              "type": "uint256",
              "internalType": "uint256"
            },
            {
              "name": "rentRecipient",
              "type": "address",
              "internalType": "address payable"
            },
            {
              "name": "status",
              "type": "uint8",
              "internalType": "enum IMarketplaceStructs.ListingStatus"
            }
          ]
        }
      ],
      "stateMutability": "view"
    },
    {
      "type": "function",
      "name": "getRentalInfo",
      "inputs": [
        {
          "name": "accessToken",
          "type": "address",
          "internalType": "address"
        },
        {
          "name": "tokenId",
          "type": "uint256",
          "internalType": "uint256"
        },
        {
          "name": "tenant",
          "type": "address",
          "internalType": "address"
        }
      ],
      "outputs": [
        {
          "name": "",
          "type": "tuple",
          "internalType": "struct IMarketplaceStructs.RentalInfo",
          "components": [
            {
              "name": "startTime",
              "type": "uint256",
              "internalType": "uint256"
            },
            {
              "name": "endTime",
              "type": "uint256",
              "internalType": "uint256"
            },
            {
              "name": "rentalDays",
              "type": "uint256",
              "internalType": "uint256"
            },
            {
              "name": "rentCurrency",
              "type": "address",
              "internalType": "address"
            },
            {
              "name": "dailyRent",
              "type": "uint256",
              "internalType": "uint256"
            },
            {
              "name": "totalPaidRent",
              "type": "uint256",
              "internalType": "uint256"
            },
            {
              "name": "status",
              "type": "uint8",
              "internalType": "enum IMarketplaceStructs.RentalStatus"
            }
          ]
        }
      ],
      "stateMutability": "view"
    },
    {
      "type": "function",
      "name": "list",
      "inputs": [
        {
          "name": "args",
          "type": "tuple",
          "internalType": "struct IMarketplaceStructs.ListArgs",
          "components": [
            {
              "name": "product",
              "type": "address",
              "internalType": "address"
            },
            {
              "name": "tokenId",
              "type": "uint256",
              "internalType": "uint256"
            },
            {
              "name": "minRentalDays",
              "type": "uint256",
              "internalType": "uint256"
            },
            {
              "name": "maxRentalDays",
              "type": "uint256",
              "internalType": "uint256"
            },
            {
              "name": "rentCurrency",
              "type": "address",
              "internalType": "address"
            },
            {
              "name": "dailyRent",
              "type": "uint256",
              "internalType": "uint256"
            },
            {
              "name": "rentRecipient",
              "type": "address",
              "internalType": "address"
            }
          ]
        }
      ],
      "outputs": [],
      "stateMutability": "nonpayable"
    },
    {
      "type": "function",
      "name": "owner",
      "inputs": [],
      "outputs": [
        {
          "name": "",
          "type": "address",
          "internalType": "address"
        }
      ],
      "stateMutability": "view"
    },
    {
      "type": "function",
      "name": "payRent",
      "inputs": [
        {
          "name": "args",
          "type": "tuple",
          "internalType": "struct IMarketplaceStructs.PayRentArgs",
          "components": [
            {
              "name": "accessToken",
              "type": "address",
              "internalType": "address"
            },
            {
              "name": "tokenId",
              "type": "uint256",
              "internalType": "uint256"
            },
            {
              "name": "tenant",
              "type": "address",
              "internalType": "address"
            },
            {
              "name": "rent",
              "type": "uint256",
              "internalType": "uint256"
            }
          ]
        }
      ],
      "outputs": [],
      "stateMutability": "payable"
    },
    {
      "type": "function",
      "name": "relist",
      "inputs": [
        {
          "name": "args",
          "type": "tuple",
          "internalType": "struct IMarketplaceStructs.RelistArgs",
          "components": [
            {
              "name": "accessToken",
              "type": "address",
              "internalType": "address"
            },
            {
              "name": "tokenId",
              "type": "uint256",
              "internalType": "uint256"
            },
            {
              "name": "minRentalDays",
              "type": "uint256",
              "internalType": "uint256"
            },
            {
              "name": "maxRentalDays",
              "type": "uint256",
              "internalType": "uint256"
            },
            {
              "name": "rentCurrency",
              "type": "address",
              "internalType": "address"
            },
            {
              "name": "dailyRent",
              "type": "uint256",
              "internalType": "uint256"
            },
            {
              "name": "rentRecipient",
              "type": "address",
              "internalType": "address payable"
            }
          ]
        }
      ],
      "outputs": [],
      "stateMutability": "nonpayable"
    },
    {
      "type": "function",
      "name": "removeRentCurrencies",
      "inputs": [
        {
          "name": "rentCurrencies",
          "type": "address[]",
          "internalType": "address[]"
        }
      ],
      "outputs": [],
      "stateMutability": "nonpayable"
    },
    {
      "type": "function",
      "name": "renounceOwnership",
      "inputs": [],
      "outputs": [],
      "stateMutability": "nonpayable"
    },
    {
      "type": "function",
      "name": "rent",
      "inputs": [
        {
          "name": "args",
          "type": "tuple",
          "internalType": "struct IMarketplaceStructs.RentArgs",
          "components": [
            {
              "name": "accessToken",
              "type": "address",
              "internalType": "address"
            },
            {
              "name": "tokenId",
              "type": "uint256",
              "internalType": "uint256"
            },
            {
              "name": "tenant",
              "type": "address",
              "internalType": "address"
            },
            {
              "name": "rentalDays",
              "type": "uint256",
              "internalType": "uint256"
            },
            {
              "name": "prepaidRent",
              "type": "uint256",
              "internalType": "uint256"
            }
          ]
        }
      ],
      "outputs": [],
      "stateMutability": "payable"
    },
    {
      "type": "function",
      "name": "setFeePoints",
      "inputs": [
        {
          "name": "feePoints",
          "type": "uint256",
          "internalType": "uint256"
        }
      ],
      "outputs": [],
      "stateMutability": "nonpayable"
    },
    {
      "type": "function",
      "name": "setTreasury",
      "inputs": [
        {
          "name": "treasury",
          "type": "address",
          "internalType": "address payable"
        }
      ],
      "outputs": [],
      "stateMutability": "nonpayable"
    },
    {
      "type": "function",
      "name": "supportedRentCurrencies",
      "inputs": [
        {
          "name": "",
          "type": "address",
          "internalType": "address"
        }
      ],
      "outputs": [
        {
          "name": "",
          "type": "bool",
          "internalType": "bool"
        }
      ],
      "stateMutability": "view"
    },
    {
      "type": "function",
      "name": "transferOwnership",
      "inputs": [
        {
          "name": "newOwner",
          "type": "address",
          "internalType": "address"
        }
      ],
      "outputs": [],
      "stateMutability": "nonpayable"
    },
    {
      "type": "function",
      "name": "withdraw",
      "inputs": [
        {
          "name": "args",
          "type": "tuple",
          "internalType": "struct IMarketplaceStructs.WithdrawArgs",
          "components": [
            {
              "name": "accessToken",
              "type": "address",
              "internalType": "address"
            },
            {
              "name": "tokenId",
              "type": "uint256",
              "internalType": "uint256"
            }
          ]
        }
      ],
      "outputs": [],
      "stateMutability": "nonpayable"
    },
    {
      "type": "event",
      "name": "Delist",
      "inputs": [
        {
          "name": "owner",
          "type": "address",
          "indexed": true,
          "internalType": "address"
        },
        {
          "name": "accessToken",
          "type": "address",
          "indexed": true,
          "internalType": "address"
        },
        {
          "name": "tokenId",
          "type": "uint256",
          "indexed": true,
          "internalType": "uint256"
        }
      ],
      "anonymous": false
    },
    {
      "type": "event",
      "name": "EndLease",
      "inputs": [
        {
          "name": "tenant",
          "type": "address",
          "indexed": true,
          "internalType": "address"
        },
        {
          "name": "accessToken",
          "type": "address",
          "indexed": true,
          "internalType": "address"
        },
        {
          "name": "tokenId",
          "type": "uint256",
          "indexed": true,
          "internalType": "uint256"
        },
        {
          "name": "operator",
          "type": "address",
          "indexed": false,
          "internalType": "address"
        }
      ],
      "anonymous": false
    },
    {
      "type": "event",
      "name": "List",
      "inputs": [
        {
          "name": "owner",
          "type": "address",
          "indexed": true,
          "internalType": "address"
        },
        {
          "name": "product",
          "type": "address",
          "indexed": true,
          "internalType": "address"
        },
        {
          "name": "accessToken",
          "type": "address",
          "indexed": false,
          "internalType": "address"
        },
        {
          "name": "tokenId",
          "type": "uint256",
          "indexed": true,
          "internalType": "uint256"
        },
        {
          "name": "minRentalDays",
          "type": "uint256",
          "indexed": false,
          "internalType": "uint256"
        },
        {
          "name": "maxRentalDays",
          "type": "uint256",
          "indexed": false,
          "internalType": "uint256"
        },
        {
          "name": "rentCurrency",
          "type": "address",
          "indexed": false,
          "internalType": "address"
        },
        {
          "name": "dailyRent",
          "type": "uint256",
          "indexed": false,
          "internalType": "uint256"
        },
        {
          "name": "rentRecipient",
          "type": "address",
          "indexed": false,
          "internalType": "address"
        }
      ],
      "anonymous": false
    },
    {
      "type": "event",
      "name": "OwnershipTransferred",
      "inputs": [
        {
          "name": "previousOwner",
          "type": "address",
          "indexed": true,
          "internalType": "address"
        },
        {
          "name": "newOwner",
          "type": "address",
          "indexed": true,
          "internalType": "address"
        }
      ],
      "anonymous": false
    },
    {
      "type": "event",
      "name": "PayRent",
      "inputs": [
        {
          "name": "tenant",
          "type": "address",
          "indexed": true,
          "internalType": "address"
        },
        {
          "name": "accessToken",
          "type": "address",
          "indexed": true,
          "internalType": "address"
        },
        {
          "name": "tokenId",
          "type": "uint256",
          "indexed": true,
          "internalType": "uint256"
        },
        {
          "name": "rent",
          "type": "uint256",
          "indexed": false,
          "internalType": "uint256"
        }
      ],
      "anonymous": false
    },
    {
      "type": "event",
      "name": "Relist",
      "inputs": [
        {
          "name": "owner",
          "type": "address",
          "indexed": true,
          "internalType": "address"
        },
        {
          "name": "accessToken",
          "type": "address",
          "indexed": true,
          "internalType": "address"
        },
        {
          "name": "tokenId",
          "type": "uint256",
          "indexed": true,
          "internalType": "uint256"
        },
        {
          "name": "minRentalDays",
          "type": "uint256",
          "indexed": false,
          "internalType": "uint256"
        },
        {
          "name": "maxRentalDays",
          "type": "uint256",
          "indexed": false,
          "internalType": "uint256"
        },
        {
          "name": "rentCurrency",
          "type": "address",
          "indexed": false,
          "internalType": "address"
        },
        {
          "name": "dailyRent",
          "type": "uint256",
          "indexed": false,
          "internalType": "uint256"
        },
        {
          "name": "rentRecipient",
          "type": "address",
          "indexed": false,
          "internalType": "address"
        }
      ],
      "anonymous": false
    },
    {
      "type": "event",
      "name": "Rent",
      "inputs": [
        {
          "name": "tenant",
          "type": "address",
          "indexed": true,
          "internalType": "address"
        },
        {
          "name": "accessToken",
          "type": "address",
          "indexed": true,
          "internalType": "address"
        },
        {
          "name": "tokenId",
          "type": "uint256",
          "indexed": true,
          "internalType": "uint256"
        },
        {
          "name": "rentalDays",
          "type": "uint256",
          "indexed": false,
          "internalType": "uint256"
        },
        {
          "name": "prepaidRent",
          "type": "uint256",
          "indexed": false,
          "internalType": "uint256"
        }
      ],
      "anonymous": false
    },
    {
      "type": "event",
      "name": "Withdraw",
      "inputs": [
        {
          "name": "owner",
          "type": "address",
          "indexed": true,
          "internalType": "address"
        },
        {
          "name": "accessToken",
          "type": "address",
          "indexed": true,
          "internalType": "address"
        },
        {
          "name": "tokenId",
          "type": "uint256",
          "indexed": true,
          "internalType": "uint256"
        }
      ],
      "anonymous": false
    },
    {
      "type": "error",
      "name": "AddressEmptyCode",
      "inputs": [
        {
          "name": "target",
          "type": "address",
          "internalType": "address"
        }
      ]
    },
    {
      "type": "error",
      "name": "AddressInsufficientBalance",
      "inputs": [
        {
          "name": "account",
          "type": "address",
          "internalType": "address"
        }
      ]
    },
    {
      "type": "error",
      "name": "FailedInnerCall",
      "inputs": []
    },
    {
      "type": "error",
      "name": "OwnableInvalidOwner",
      "inputs": [
        {
          "name": "owner",
          "type": "address",
          "internalType": "address"
        }
      ]
    },
    {
      "type": "error",
      "name": "OwnableUnauthorizedAccount",
      "inputs": [
        {
          "name": "account",
          "type": "address",
          "internalType": "address"
        }
      ]
    },
    {
      "type": "error",
      "name": "SafeERC20FailedOperation",
      "inputs": [
        {
          "name": "token",
          "type": "address",
          "internalType": "address"
        }
      ]
    }
  ],
  "bytecode": {
    "object": "0x60a060405234801561001057600080fd5b5060405161267938038061267983398101604081905261002f9161018f565b846001600160a01b03811661005e57604051631e4fbdf760e01b81526000600482015260240160405180910390fd5b61006781610101565b506001600160a01b03841660805260005b83518110156100d357600160036000868481518110610099576100996102a3565b6020908102919091018101516001600160a01b03168252810191909152604001600020805460ff1916911515919091179055600101610078565b50600180546001600160a01b0319166001600160a01b039390931692909217909155600255506102b9915050565b600080546001600160a01b038381166001600160a01b0319831681178455604051919092169283917f8be0079c531659141344cd1fd0a4f28419497f9722a3daafe3b4186f6b6457e09190a35050565b6001600160a01b038116811461016657600080fd5b50565b805161017481610151565b919050565b634e487b7160e01b600052604160045260246000fd5b600080600080600060a086880312156101a757600080fd5b85516101b281610151565b60208701519095506101c381610151565b60408701519094506001600160401b038111156101df57600080fd5b8601601f810188136101f057600080fd5b80516001600160401b0381111561020957610209610179565b604051600582901b90603f8201601f191681016001600160401b038111828210171561023757610237610179565b60405291825260208184018101929081018b84111561025557600080fd5b6020850194505b8385101561027b5761026d85610169565b81526020948501940161025c565b50955061028e9250505060608701610169565b60809690960151949793965091949392915050565b634e487b7160e01b600052603260045260246000fd5b6080516123976102e2600039600081816101580152818161053901526105d501526123976000f3fe60806040526004361061011f5760003560e01c80635b860d58116100a0578063a451a0a111610064578063a451a0a114610330578063b038a24f14610370578063b2e6cb1514610383578063f0f44260146103a3578063f2fde38b146103c357600080fd5b80635b860d581461029d578063680c3de1146102ca578063715018a6146102ea57806389d3443f146102ff5780638da5cb5b1461031257600080fd5b806331f7d964116100e757806331f7d9641461020857806335035d6e1461021d5780633c5654171461023d5780633e844b881461025d5780634387cc521461027d57600080fd5b80630d831203146101245780631441da2d146101465780631f162d201461019757806325f87d23146101b75780632f7eff64146101db575b600080fd5b34801561013057600080fd5b5061014461013f366004611d33565b6103e3565b005b34801561015257600080fd5b5061017a7f000000000000000000000000000000000000000000000000000000000000000081565b6040516001600160a01b0390911681526020015b60405180910390f35b3480156101a357600080fd5b506101446101b2366004611df4565b6103f0565b3480156101c357600080fd5b506101cd61271081565b60405190815260200161018e565b3480156101e757600080fd5b506101fb6101f6366004611ead565b61045a565b60405161018e9190611f05565b34801561021457600080fd5b5061017a600081565b34801561022957600080fd5b50610144610238366004611f6b565b610516565b34801561024957600080fd5b50610144610258366004611ff0565b610a4f565b34801561026957600080fd5b50610144610278366004611df4565b610c8d565b34801561028957600080fd5b50610144610298366004611f6b565b610cf3565b3480156102a957600080fd5b506102bd6102b836600461202c565b610f33565b60405161018e9190612058565b3480156102d657600080fd5b506101446102e5366004611ff0565b61101d565b3480156102f657600080fd5b506101446110c0565b61014461030d3660046120b8565b6110d4565b34801561031e57600080fd5b506000546001600160a01b031661017a565b34801561033c57600080fd5b5061036061034b36600461213e565b60036020526000908152604090205460ff1681565b604051901515815260200161018e565b61014461037e36600461215b565b611566565b34801561038f57600080fd5b5061014461039e3660046121d2565b611722565b3480156103af57600080fd5b506101446103be36600461213e565b6118a0565b3480156103cf57600080fd5b506101446103de36600461213e565b6118ca565b6103eb611908565b600255565b6103f8611908565b60005b81518110156104565760006003600084848151811061041c5761041c61223d565b6020908102919091018101516001600160a01b03168252810191909152604001600020805460ff19169115159190911790556001016103fb565b5050565b610462611cdd565b6001600160a01b03808516600090815260056020818152604080842088855282528084208786168552825292839020835160e081018552815481526001808301549382019390935260028201549481019490945260038101549094166060840152600484015460808401529083015460a0830152600683015491929160c084019160ff909116908111156104f8576104f8611eef565b600181111561050957610509611eef565b90525090505b9392505050565b80516040516288992960e71b81526001600160a01b0391821660048201526000917f0000000000000000000000000000000000000000000000000000000000000000169063444c948090602401602060405180830381865afa158015610580573d6000803e3d6000fd5b505050506040513d601f19601f820116820180604052508101906105a49190612253565b90506001600160a01b0381166106475781516040516331f5ddf360e01b81526001600160a01b0391821660048201527f0000000000000000000000000000000000000000000000000000000000000000909116906331f5ddf3906024016020604051808303816000875af1158015610620573d6000803e3d6000fd5b505050506040513d601f19601f820116820180604052508101906106449190612253565b90505b60006001600160a01b0382166000908152600460209081526040808320868301518452909152902060050154600160a01b900460ff16600281111561068e5761068e611eef565b146106d75760405162461bcd60e51b81526020600482015260146024820152731d1bdad95b88185b1c9958591e481b1a5cdd195960621b60448201526064015b60405180910390fd5b600082604001511161072b5760405162461bcd60e51b815260206004820152601b60248201527f696e76616c6964206d696e696d756d2072656e74616c2064617973000000000060448201526064016106ce565b8160400151826060015110156107835760405162461bcd60e51b815260206004820152601b60248201527f696e76616c6964206d6178696d756d2072656e74616c2064617973000000000060448201526064016106ce565b60808201516001600160a01b031615806107b9575060808201516001600160a01b031660009081526003602052604090205460ff165b6108015760405162461bcd60e51b8152602060048201526019602482015278756e737570706f727465642072656e742063757272656e637960381b60448201526064016106ce565b6040518060e00160405280336001600160a01b03168152602001836040015181526020018360600151815260200183608001516001600160a01b031681526020018360a0015181526020018360c001516001600160a01b031681526020016001600281111561087257610872611eef565b90526001600160a01b038083166000908152600460208181526040808420888301518552825292839020855181549086166001600160a01b031991821617825591860151600182015592850151600280850191909155606086015160038501805491871691841691909117905560808601519284019290925560a0850151600584018054919095169181168217855560c08601519394926001600160a81b031990911690911790600160a01b90849081111561093057610930611eef565b021790555050825160208401516040516323b872dd60e01b815233600482015230602482015260448101919091526001600160a01b0390911691506323b872dd90606401600060405180830381600087803b15801561098e57600080fd5b505af11580156109a2573d6000803e3d6000fd5b50505050816020015182600001516001600160a01b0316336001600160a01b03167fb4ee98c0ee7236589daf2bdd0a98e68ae359f0b56f22260adcc1b3a2ffcf05c8848660400151876060015188608001518960a001518a60c00151604051610a43969594939291906001600160a01b039687168152602081019590955260408501939093529084166060840152608083015290911660a082015260c00190565b60405180910390a45050565b80516001600160a01b039081166000908152600460209081526040808320828601518452909152902080549091163314610a9b5760405162461bcd60e51b81526004016106ce90612270565b8151602083015160405163ca8f8ff360e01b81526001600160a01b039092169163ca8f8ff391610ad19160040190815260200190565b602060405180830381865afa158015610aee573d6000803e3d6000fd5b505050506040513d601f19601f82011682018060405250810190610b12919061229b565b15610b5f5760405162461bcd60e51b815260206004820152601760248201527f61636365737320746f6b656e206861732074656e616e7400000000000000000060448201526064016106ce565b60058101805460ff60a01b191690558151604080516325425a9160e01b815290516001600160a01b03909216916325425a91916004808201926020929091908290030181865afa158015610bb7573d6000803e3d6000fd5b505050506040513d601f19601f82011682018060405250810190610bdb9190612253565b815460208401516040516323b872dd60e01b81523060048201526001600160a01b03928316602482015260448101919091529116906323b872dd90606401600060405180830381600087803b158015610c3357600080fd5b505af1158015610c47573d6000803e3d6000fd5b505050602083015183516040519192506001600160a01b03169033907f9b1bfa7fa9ee420a16e124f794c35ac9f90472acc99140eb2f6447c714cad8eb90600090a45050565b610c95611908565b60005b815181101561045657600160036000848481518110610cb957610cb961223d565b6020908102919091018101516001600160a01b03168252810191909152604001600020805460ff1916911515919091179055600101610c98565b80516001600160a01b039081166000908152600460209081526040808320828601518452909152902080549091163314610d3f5760405162461bcd60e51b81526004016106ce90612270565b6000826040015111610d935760405162461bcd60e51b815260206004820152601b60248201527f696e76616c6964206d696e696d756d2072656e74616c2064617973000000000060448201526064016106ce565b816040015182606001511015610deb5760405162461bcd60e51b815260206004820152601b60248201527f696e76616c6964206d6178696d756d2072656e74616c2064617973000000000060448201526064016106ce565b60808201516001600160a01b03161580610e21575060808201516001600160a01b031660009081526003602052604090205460ff165b610e695760405162461bcd60e51b8152602060048201526019602482015278756e737570706f727465642072656e742063757272656e637960381b60448201526064016106ce565b60408281015160018301819055606080850151600285018190556080808701516003870180546001600160a01b0319166001600160a01b0392831690811790915560a0808a015160048a0181905560c08b015160058b018054600160a01b6001600160a81b03199091169287169283171790556020808d01518d518c519b8c52918b01989098529989019390935295870195909552918501919091529093169133917f1040fde24ba5fda87e215c67e4096b8d9a2ad5416721132abe4ee018b22f6e199101610a43565b610f706040805160e081018252600080825260208201819052918101829052606081018290526080810182905260a081018290529060c082015290565b6001600160a01b038381166000908152600460208181526040808420878552825292839020835160e08101855281548616815260018201549281019290925260028082015494830194909452600381015485166060830152918201546080820152600582015493841660a082015292909160c0840191600160a01b900460ff169081111561100057611000611eef565b600281111561101157611011611eef565b90525090505b92915050565b80516001600160a01b0390811660009081526004602090815260408083208286015184529091529020805490911633146110695760405162461bcd60e51b81526004016106ce90612270565b60058101805460ff60a01b1916600160a11b179055602082015182516040516001600160a01b039091169033907f1b54b63a4f30c4b17093de03db83e3672ed626b964b08e4ee12434a84750571c90600090a45050565b6110c8611908565b6110d26000611935565b565b600081516001600160a01b0390811660009081526005602090815260408083208287015184528252808320818701519094168352929052206006015460ff16600181111561112457611124611eef565b146111635760405162461bcd60e51b815260206004820152600f60248201526e195e1a5cdd1a5b99c81c995b9d185b608a1b60448201526064016106ce565b80516001600160a01b0390811660009081526004602081815260408084208287015185528252808420815160e08101835281548716815260018201549381019390935260028082015492840192909252600381015486166060840152928301546080830152600583015494851660a08301529293909260c0840191600160a01b900460ff16908111156111f8576111f8611eef565b600281111561120957611209611eef565b905250905060018160c00151600281111561122657611226611eef565b146112615760405162461bcd60e51b815260206004820152600b60248201526a6e6f74206c697374696e6760a81b60448201526064016106ce565b816060015181602001511115801561128157508060400151826060015111155b6112c35760405162461bcd60e51b8152602060048201526013602482015272696e76616c69642072656e74616c206461797360681b60448201526064016106ce565b806080015181602001516112d791906122d3565b8260800151101561132a5760405162461bcd60e51b815260206004820152601960248201527f696e73756666696369656e7420707265706169642072656e740000000000000060448201526064016106ce565b6040518060e0016040528042815260200183606001516201518061134e91906122d3565b61135890426122ea565b81526020018360600151815260200182606001516001600160a01b03168152602001826080015181526020016000815260200160018081111561139d5761139d611eef565b905282516001600160a01b03908116600090815260056020818152604080842082890151855282528084208189015186168552825292839020855181559085015160018083019190915592850151600282015560608501516003820180546001600160a01b03191691909516179093556080840151600484015560a08401519083015560c08301516006830180549192909160ff191690838181111561144557611445611eef565b02179055505082516001600160a01b03908116600090815260056020908152604080832082880151845282528083208188015190941683529290522060808401516114939250839190611985565b8151604080840151602085015191516340c10f1960e01b81526001600160a01b0391821660048201526024810192909252909116906340c10f1990604401600060405180830381600087803b1580156114eb57600080fd5b505af11580156114ff573d6000803e3d6000fd5b50505050816020015182600001516001600160a01b031683604001516001600160a01b03167f1d4fef35bb581225fb930231d04e28e91ed9bc511745a0de0d6e411b4791437c85606001518660800151604051610a43929190918252602082015260400190565b80516001600160a01b0390811660009081526004602081815260408084208287015185528252808420815160e08101835281548716815260018201549381019390935260028082015492840192909252600381015486166060840152928301546080830152600583015494851660a08301529293909260c0840191600160a01b900460ff16908111156115fb576115fb611eef565b600281111561160c5761160c611eef565b90525082516001600160a01b03908116600090815260056020908152604080832082880151845282528083208188015190941683529290522060048101546002820154929350909161165e91906122d3565b8360600151826005015461167291906122ea565b11156116b05760405162461bcd60e51b815260206004820152600d60248201526c1d1bdbc81b5d58da081c995b9d609a1b60448201526064016106ce565b6116bf82828560600151611985565b826020015183600001516001600160a01b031684604001516001600160a01b03167fa482ab085b425a4eb3407d8886735974c0fddbadbaf5800dcbc77f6d63fed973866060015160405161171591815260200190565b60405180910390a4505050565b80516001600160a01b03908116600090815260056020908152604080832082860151845282528083208186015190941683529290529081206004810154815491929162015180919061177490426122fd565b61177e91906122d3565b6117889190612310565b9050428260010154108061179f5750808260050154105b6117de5760405162461bcd60e51b815260206004820152601060248201526f63616e6e6f7420656e64206c6561736560801b60448201526064016106ce565b82516020840151604051630852cd8d60e31b81526001600160a01b03909216916342966c68916118149160040190815260200190565b600060405180830381600087803b15801561182e57600080fd5b505af1158015611842573d6000803e3d6000fd5b5050505060068201805460ff191690556020808401518451604080870151905133815292936001600160a01b039283169391909216917f771671087af93cf5375725c464f0f8ef9daed0ef0ede57a66334c7ea6b3abd349101611715565b6118a8611908565b600180546001600160a01b0319166001600160a01b0392909216919091179055565b6118d2611908565b6001600160a01b0381166118fc57604051631e4fbdf760e01b8152600060048201526024016106ce565b61190581611935565b50565b6000546001600160a01b031633146110d25760405163118cdaa760e01b81523360048201526024016106ce565b600080546001600160a01b038381166001600160a01b0319831681178455604051919092169283917f8be0079c531659141344cd1fd0a4f28419497f9722a3daafe3b4186f6b6457e09190a35050565b6002546000908190158015906119c357612710600254856119a691906122d3565b6119b09190612310565b92506119bc83856122fd565b91506119c7565b8391505b60038501546001600160a01b0316611aa457833414611a1f5760405162461bcd60e51b81526020600482015260146024820152731a5b9d985b1a59081c1c995c185a59081c995b9d60621b60448201526064016106ce565b8560a001516001600160a01b03166108fc839081150290604051600060405180830381858888f19350505050158015611a5c573d6000803e3d6000fd5b508015611a9f576001546040516001600160a01b039091169084156108fc029085906000818181858888f19350505050158015611a9d573d6000803e3d6000fd5b505b611aed565b60a08601516003860154611ac6916001600160a01b0390911690339085611b0e565b8015611aed576001546003860154611aed916001600160a01b039182169133911686611b0e565b83856005016000828254611b0191906122ea565b9091555050505050505050565b604080516001600160a01b0385811660248301528416604482015260648082018490528251808303909101815260849091019091526020810180516001600160e01b03166323b872dd60e01b179052611b68908590611b6e565b50505050565b6000611b836001600160a01b03841683611bd6565b90508051600014158015611ba8575080806020019051810190611ba6919061229b565b155b15611bd157604051635274afe760e01b81526001600160a01b03841660048201526024016106ce565b505050565b606061050f8383600084600080856001600160a01b03168486604051611bfc9190612332565b60006040518083038185875af1925050503d8060008114611c39576040519150601f19603f3d011682016040523d82523d6000602084013e611c3e565b606091505b5091509150611c4e868383611c58565b9695505050505050565b606082611c6d57611c6882611cb4565b61050f565b8151158015611c8457506001600160a01b0384163b155b15611cad57604051639996b31560e01b81526001600160a01b03851660048201526024016106ce565b508061050f565b805115611cc45780518082602001fd5b604051630a12f52160e11b815260040160405180910390fd5b6040518060e0016040528060008152602001600081526020016000815260200160006001600160a01b03168152602001600081526020016000815260200160006001811115611d2e57611d2e611eef565b905290565b600060208284031215611d4557600080fd5b5035919050565b634e487b7160e01b600052604160045260246000fd5b60405160e0810167ffffffffffffffff81118282101715611d8557611d85611d4c565b60405290565b6040805190810167ffffffffffffffff81118282101715611d8557611d85611d4c565b604051601f8201601f1916810167ffffffffffffffff81118282101715611dd757611dd7611d4c565b604052919050565b6001600160a01b038116811461190557600080fd5b600060208284031215611e0657600080fd5b813567ffffffffffffffff811115611e1d57600080fd5b8201601f81018413611e2e57600080fd5b803567ffffffffffffffff811115611e4857611e48611d4c565b8060051b611e5860208201611dae565b91825260208184018101929081019087841115611e7457600080fd5b6020850194505b83851015611ea25784359250611e9083611ddf565b82825260209485019490910190611e7b565b979650505050505050565b600080600060608486031215611ec257600080fd5b8335611ecd81611ddf565b9250602084013591506040840135611ee481611ddf565b809150509250925092565b634e487b7160e01b600052602160045260246000fd5b8151815260208083015190820152604080830151908201526060808301516001600160a01b0316908201526080808301519082015260a0808301519082015260c082015160e082019060028110611f5e57611f5e611eef565b8060c08401525092915050565b600060e0828403128015611f7e57600080fd5b506000611f89611d62565b8335611f9481611ddf565b81526020848101359082015260408085013590820152606080850135908201526080840135611fc281611ddf565b608082015260a0848101359082015260c08401359150611fe182611ddf565b60c08101919091529392505050565b6000604082840312801561200357600080fd5b5061200c611d8b565b823561201781611ddf565b81526020928301359281019290925250919050565b6000806040838503121561203f57600080fd5b823561204a81611ddf565b946020939093013593505050565b81516001600160a01b03908116825260208084015190830152604080840151908301526060808401518216908301526080808401519083015260a0838101519091169082015260c082015160e082019060038110611f5e57611f5e611eef565b600060a08284031280156120cb57600080fd5b5060405160009060a0810167ffffffffffffffff811182821017156120f2576120f2611d4c565b604052833561210081611ddf565b815260208481013590820152604084013561211a81611ddf565b60408201526060848101359082015260809384013593810193909352509092915050565b60006020828403121561215057600080fd5b813561050f81611ddf565b6000608082840312801561216e57600080fd5b506040516080810167ffffffffffffffff8111828210171561219257612192611d4c565b60405282356121a081611ddf565b81526020838101359082015260408301356121ba81611ddf565b60408201526060928301359281019290925250919050565b600060608284031280156121e557600080fd5b506040516060810167ffffffffffffffff8111828210171561220957612209611d4c565b604052823561221781611ddf565b815260208381013590820152604083013561223181611ddf565b60408201529392505050565b634e487b7160e01b600052603260045260246000fd5b60006020828403121561226557600080fd5b815161050f81611ddf565b6020808252601190820152703737ba103634b9ba34b7339037bbb732b960791b604082015260600190565b6000602082840312156122ad57600080fd5b8151801515811461050f57600080fd5b634e487b7160e01b600052601160045260246000fd5b8082028115828204841417611017576110176122bd565b80820180821115611017576110176122bd565b81810381811115611017576110176122bd565b60008261232d57634e487b7160e01b600052601260045260246000fd5b500490565b6000825160005b818110156123535760208186018101518583015201612339565b50600092019182525091905056fea2646970667358221220eb4ca08ab2075a31bca51f84e19e37cb5ba80db08e5db7fdc5b47cd2c0c5b92364736f6c634300081a0033",
    "linkReferences": {}
  },
  "methodIdentifiers": {
    "ACCESS_TOKEN_FACTORY()": "1441da2d",
    "MAX_POINTS()": "25f87d23",
    "NATIVE_TOKEN()": "31f7d964",
    "addRentCurrencies(address[])": "3e844b88",
    "delist((address,uint256))": "680c3de1",
    "endLease((address,uint256,address))": "b2e6cb15",
    "getListingInfo(address,uint256)": "5b860d58",
    "getRentalInfo(address,uint256,address)": "2f7eff64",
    "list((address,uint256,uint256,uint256,address,uint256,address))": "35035d6e",
    "owner()": "8da5cb5b",
    "payRent((address,uint256,address,uint256))": "b038a24f",
    "relist((address,uint256,uint256,uint256,address,uint256,address))": "4387cc52",
    "removeRentCurrencies(address[])": "1f162d20",
    "renounceOwnership()": "715018a6",
    "rent((address,uint256,address,uint256,uint256))": "89d3443f",
    "setFeePoints(uint256)": "0d831203",
    "setTreasury(address)": "f0f44260",
    "supportedRentCurrencies(address)": "a451a0a1",
    "transferOwnership(address)": "f2fde38b",
    "withdraw((address,uint256))": "3c565417"
  },
  "id": 2
}