{"abi":[{"type":"constructor","inputs":[{"name":"product","type":"address","internalType":"contract IProduct"},{"name":"name","type":"string","internalType":"string"},{"name":"symbol","type":"string","internalType":"string"}],"stateMutability":"nonpayable"},{"type":"function","name":"PRODUCT","inputs":[],"outputs":[{"name":"","type":"address","internalType":"contract IProduct"}],"stateMutability":"view"},{"type":"function","name":"approve","inputs":[{"name":"to","type":"address","internalType":"address"},{"name":"tokenId","type":"uint256","internalType":"uint256"}],"outputs":[],"stateMutability":"nonpayable"},{"type":"function","name":"balanceOf","inputs":[{"name":"owner","type":"address","internalType":"address"}],"outputs":[{"name":"","type":"uint256","internalType":"uint256"}],"stateMutability":"view"},{"type":"function","name":"burn","inputs":[{"name":"tokenId","type":"uint256","internalType":"uint256"}],"outputs":[],"stateMutability":"nonpayable"},{"type":"function","name":"getApproved","inputs":[{"name":"tokenId","type":"uint256","internalType":"uint256"}],"outputs":[{"name":"","type":"address","internalType":"address"}],"stateMutability":"view"},{"type":"function","name":"isApprovedForAll","inputs":[{"name":"owner","type":"address","internalType":"address"},{"name":"operator","type":"address","internalType":"address"}],"outputs":[{"name":"","type":"bool","internalType":"bool"}],"stateMutability":"view"},{"type":"function","name":"isExist","inputs":[{"name":"tokenId","type":"uint256","internalType":"uint256"}],"outputs":[{"name":"","type":"bool","internalType":"bool"}],"stateMutability":"view"},{"type":"function","name":"isUserOwned","inputs":[{"name":"user","type":"address","internalType":"address"},{"name":"tokenId","type":"uint256","internalType":"uint256"}],"outputs":[{"name":"","type":"bool","internalType":"bool"}],"stateMutability":"view"},{"type":"function","name":"mint","inputs":[{"name":"user","type":"address","internalType":"address"},{"name":"tokenId","type":"uint256","internalType":"uint256"}],"outputs":[],"stateMutability":"nonpayable"},{"type":"function","name":"name","inputs":[],"outputs":[{"name":"","type":"string","internalType":"string"}],"stateMutability":"view"},{"type":"function","name":"ownerOf","inputs":[{"name":"tokenId","type":"uint256","internalType":"uint256"}],"outputs":[{"name":"","type":"address","internalType":"address"}],"stateMutability":"view"},{"type":"function","name":"safeTransferFrom","inputs":[{"name":"from","type":"address","internalType":"address"},{"name":"to","type":"address","internalType":"address"},{"name":"tokenId","type":"uint256","internalType":"uint256"}],"outputs":[],"stateMutability":"nonpayable"},{"type":"function","name":"safeTransferFrom","inputs":[{"name":"from","type":"address","internalType":"address"},{"name":"to","type":"address","internalType":"address"},{"name":"tokenId","type":"uint256","internalType":"uint256"},{"name":"data","type":"bytes","internalType":"bytes"}],"outputs":[],"stateMutability":"nonpayable"},{"type":"function","name":"setApprovalForAll","inputs":[{"name":"operator","type":"address","internalType":"address"},{"name":"approved","type":"bool","internalType":"bool"}],"outputs":[],"stateMutability":"nonpayable"},{"type":"function","name":"supportsInterface","inputs":[{"name":"interfaceId","type":"bytes4","internalType":"bytes4"}],"outputs":[{"name":"","type":"bool","internalType":"bool"}],"stateMutability":"view"},{"type":"function","name":"symbol","inputs":[],"outputs":[{"name":"","type":"string","internalType":"string"}],"stateMutability":"view"},{"type":"function","name":"tokenURI","inputs":[{"name":"tokenId","type":"uint256","internalType":"uint256"}],"outputs":[{"name":"","type":"string","internalType":"string"}],"stateMutability":"view"},{"type":"function","name":"transferFrom","inputs":[{"name":"from","type":"address","internalType":"address"},{"name":"to","type":"address","internalType":"address"},{"name":"tokenId","type":"uint256","internalType":"uint256"}],"outputs":[],"stateMutability":"nonpayable"},{"type":"event","name":"Approval","inputs":[{"name":"owner","type":"address","indexed":true,"internalType":"address"},{"name":"approved","type":"address","indexed":true,"internalType":"address"},{"name":"tokenId","type":"uint256","indexed":true,"internalType":"uint256"}],"anonymous":false},{"type":"event","name":"ApprovalForAll","inputs":[{"name":"owner","type":"address","indexed":true,"internalType":"address"},{"name":"operator","type":"address","indexed":true,"internalType":"address"},{"name":"approved","type":"bool","indexed":false,"internalType":"bool"}],"anonymous":false},{"type":"event","name":"Transfer","inputs":[{"name":"from","type":"address","indexed":true,"internalType":"address"},{"name":"to","type":"address","indexed":true,"internalType":"address"},{"name":"tokenId","type":"uint256","indexed":true,"internalType":"uint256"}],"anonymous":false},{"type":"error","name":"ERC721IncorrectOwner","inputs":[{"name":"sender","type":"address","internalType":"address"},{"name":"tokenId","type":"uint256","internalType":"uint256"},{"name":"owner","type":"address","internalType":"address"}]},{"type":"error","name":"ERC721InsufficientApproval","inputs":[{"name":"operator","type":"address","internalType":"address"},{"name":"tokenId","type":"uint256","internalType":"uint256"}]},{"type":"error","name":"ERC721InvalidApprover","inputs":[{"name":"approver","type":"address","internalType":"address"}]},{"type":"error","name":"ERC721InvalidOperator","inputs":[{"name":"operator","type":"address","internalType":"address"}]},{"type":"error","name":"ERC721InvalidOwner","inputs":[{"name":"owner","type":"address","internalType":"address"}]},{"type":"error","name":"ERC721InvalidReceiver","inputs":[{"name":"receiver","type":"address","internalType":"address"}]},{"type":"error","name":"ERC721InvalidSender","inputs":[{"name":"sender","type":"address","internalType":"address"}]},{"type":"error","name":"ERC721NonexistentToken","inputs":[{"name":"tokenId","type":"uint256","internalType":"uint256"}]}],"bytecode":{"object":"0x60a060405234801561001057600080fd5b5060405161157738038061157783398101604081905261002f9161011c565b8181600061003d838261022d565b50600161004a828261022d565b5050506001600160a01b03909216608052506102eb9050565b634e487b7160e01b600052604160045260246000fd5b600082601f83011261008a57600080fd5b81516001600160401b038111156100a3576100a3610063565b604051601f8201601f19908116603f011681016001600160401b03811182821017156100d1576100d1610063565b6040528181528382016020018510156100e957600080fd5b60005b82811015610108576020818601810151838301820152016100ec565b506000918101602001919091529392505050565b60008060006060848603121561013157600080fd5b83516001600160a01b038116811461014857600080fd5b60208501519093506001600160401b0381111561016457600080fd5b61017086828701610079565b604086015190935090506001600160401b0381111561018e57600080fd5b61019a86828701610079565b9150509250925092565b600181811c908216806101b857607f821691505b6020821081036101d857634e487b7160e01b600052602260045260246000fd5b50919050565b601f82111561022857806000526020600020601f840160051c810160208510156102055750805b601f840160051c820191505b818110156102255760008155600101610211565b50505b505050565b81516001600160401b0381111561024657610246610063565b61025a8161025484546101a4565b846101de565b6020601f82116001811461028e57600083156102765750848201515b600019600385901b1c1916600184901b178455610225565b600084815260208120601f198516915b828110156102be578785015182556020948501946001909201910161029e565b50848210156102dc5786840151600019600387901b60f8161c191681555b50505050600190811b01905550565b608051611263610314600039600081816101b0015281816104b001526105b901526112636000f3fe608060405234801561001057600080fd5b50600436106101165760003560e01c80636352211e116100a2578063a22cb46511610071578063a22cb46514610275578063b88d4fde14610288578063c87b56dd1461029b578063ca8f8ff3146102ae578063e985e9c5146102d957600080fd5b80636352211e1461020b57806370a082311461021e5780637d8102bf1461023f57806395d89b411461026d57600080fd5b806323b872dd116100e957806323b872dd1461019857806325425a91146101ab57806340c10f19146101d257806342842e0e146101e557806342966c68146101f857600080fd5b806301ffc9a71461011b57806306fdde0314610143578063081812fc14610158578063095ea7b314610183575b600080fd5b61012e610129366004610eab565b6102ec565b60405190151581526020015b60405180910390f35b61014b61033e565b60405161013a9190610f18565b61016b610166366004610f2b565b6103d0565b6040516001600160a01b03909116815260200161013a565b610196610191366004610f59565b6103f9565b005b6101966101a6366004610f85565b610408565b61016b7f000000000000000000000000000000000000000000000000000000000000000081565b6101966101e0366004610f59565b610498565b6101966101f3366004610f85565b610586565b610196610206366004610f2b565b6105a1565b61016b610219366004610f2b565b610689565b61023161022c366004610fc6565b610694565b60405190815260200161013a565b61012e61024d366004610f59565b6000908152600260205260409020546001600160a01b0390811691161490565b61014b6106dc565b610196610283366004610fe3565b6106eb565b610196610296366004611037565b6106f6565b61014b6102a9366004610f2b565b61070d565b61012e6102bc366004610f2b565b6000908152600260205260409020546001600160a01b0316151590565b61012e6102e736600461111f565b610782565b60006001600160e01b031982166380ac58cd60e01b148061031d57506001600160e01b03198216635b5e139f60e01b145b8061033857506301ffc9a760e01b6001600160e01b03198316145b92915050565b60606000805461034d9061114d565b80601f01602080910402602001604051908101604052809291908181526020018280546103799061114d565b80156103c65780601f1061039b576101008083540402835291602001916103c6565b820191906000526020600020905b8154815290600101906020018083116103a957829003601f168201915b5050505050905090565b60006103db826107b0565b506000828152600460205260409020546001600160a01b0316610338565b6104048282336107e9565b5050565b6001600160a01b03821661043757604051633250574960e11b8152600060048201526024015b60405180910390fd5b60006104448383336107f6565b9050836001600160a01b0316816001600160a01b031614610492576040516364283d7b60e01b81526001600160a01b038086166004830152602482018490528216604482015260640161042e565b50505050565b6040516331a9108f60e11b81526004810182905281907f00000000000000000000000000000000000000000000000000000000000000006001600160a01b031690636352211e90602401602060405180830381865afa1580156104ff573d6000803e3d6000fd5b505050506040513d601f19601f820116820180604052508101906105239190611187565b6001600160a01b0316336001600160a01b0316146105775760405162461bcd60e51b81526020600482015260116024820152703737ba10383937b23ab1ba1037bbb732b960791b604482015260640161042e565b61058183836108ef565b505050565b610581838383604051806020016040528060008152506106f6565b6040516331a9108f60e11b81526004810182905281907f00000000000000000000000000000000000000000000000000000000000000006001600160a01b031690636352211e90602401602060405180830381865afa158015610608573d6000803e3d6000fd5b505050506040513d601f19601f8201168201806040525081019061062c9190611187565b6001600160a01b0316336001600160a01b0316146106805760405162461bcd60e51b81526020600482015260116024820152703737ba10383937b23ab1ba1037bbb732b960791b604482015260640161042e565b61040482610954565b6000610338826107b0565b60006001600160a01b0382166106c0576040516322718ad960e21b81526000600482015260240161042e565b506001600160a01b031660009081526003602052604090205490565b60606001805461034d9061114d565b61040433838361098f565b610701848484610408565b61049284848484610a2e565b6060610718826107b0565b50600061073060408051602081019091526000815290565b90506000815111610750576040518060200160405280600081525061077b565b8061075a84610b57565b60405160200161076b9291906111a4565b6040516020818303038152906040525b9392505050565b6001600160a01b03918216600090815260056020908152604080832093909416825291909152205460ff1690565b6000818152600260205260408120546001600160a01b03168061033857604051637e27328960e01b81526004810184905260240161042e565b6105818383836001610bea565b6000828152600260205260408120546001600160a01b039081169083161561082357610823818486610cf0565b6001600160a01b0381161561086157610840600085600080610bea565b6001600160a01b038116600090815260036020526040902080546000190190555b6001600160a01b03851615610890576001600160a01b0385166000908152600360205260409020805460010190555b60008481526002602052604080822080546001600160a01b0319166001600160a01b0389811691821790925591518793918516917fddf252ad1be2c89b69c2b068fc378daa952ba7f163c4a11628f55a4df523b3ef91a4949350505050565b6001600160a01b03821661091957604051633250574960e11b81526000600482015260240161042e565b6000610927838360006107f6565b90506001600160a01b03811615610581576040516339e3563760e11b81526000600482015260240161042e565b600061096360008360006107f6565b90506001600160a01b03811661040457604051637e27328960e01b81526004810183905260240161042e565b6001600160a01b0382166109c157604051630b61174360e31b81526001600160a01b038316600482015260240161042e565b6001600160a01b03838116600081815260056020908152604080832094871680845294825291829020805460ff191686151590811790915591519182527f17307eab39ab6107e8899845ad3d59bd9653f200f220920489ca2b5937696c31910160405180910390a3505050565b6001600160a01b0383163b1561049257604051630a85bd0160e11b81526001600160a01b0384169063150b7a0290610a709033908890879087906004016111d3565b6020604051808303816000875af1925050508015610aab575060408051601f3d908101601f19168201909252610aa891810190611210565b60015b610b14573d808015610ad9576040519150601f19603f3d011682016040523d82523d6000602084013e610ade565b606091505b508051600003610b0c57604051633250574960e11b81526001600160a01b038516600482015260240161042e565b805181602001fd5b6001600160e01b03198116630a85bd0160e11b14610b5057604051633250574960e11b81526001600160a01b038516600482015260240161042e565b5050505050565b60606000610b6483610d54565b600101905060008167ffffffffffffffff811115610b8457610b84611021565b6040519080825280601f01601f191660200182016040528015610bae576020820181803683370190505b5090508181016020015b600019016f181899199a1a9b1b9c1cb0b131b232b360811b600a86061a8153600a8504945084610bb857509392505050565b8080610bfe57506001600160a01b03821615155b15610cc0576000610c0e846107b0565b90506001600160a01b03831615801590610c3a5750826001600160a01b0316816001600160a01b031614155b8015610c4d5750610c4b8184610782565b155b15610c765760405163a9fbf51f60e01b81526001600160a01b038416600482015260240161042e565b8115610cbe5783856001600160a01b0316826001600160a01b03167f8c5be1e5ebec7d5bd14f71427d1e84f3dd0314c0f7b2291e5b200ac8c7c3b92560405160405180910390a45b505b5050600090815260046020526040902080546001600160a01b0319166001600160a01b0392909216919091179055565b610cfb838383610e2c565b610581576001600160a01b038316610d2957604051637e27328960e01b81526004810182905260240161042e565b60405163177e802f60e01b81526001600160a01b03831660048201526024810182905260440161042e565b60008072184f03e93ff9f4daa797ed6e38ed64bf6a1f0160401b8310610d935772184f03e93ff9f4daa797ed6e38ed64bf6a1f0160401b830492506040015b6d04ee2d6d415b85acef81000000008310610dbf576d04ee2d6d415b85acef8100000000830492506020015b662386f26fc100008310610ddd57662386f26fc10000830492506010015b6305f5e1008310610df5576305f5e100830492506008015b6127108310610e0957612710830492506004015b60648310610e1b576064830492506002015b600a83106103385760010192915050565b60006001600160a01b03831615801590610e8a5750826001600160a01b0316846001600160a01b03161480610e665750610e668484610782565b80610e8a57506000828152600460205260409020546001600160a01b038481169116145b949350505050565b6001600160e01b031981168114610ea857600080fd5b50565b600060208284031215610ebd57600080fd5b813561077b81610e92565b60005b83811015610ee3578181015183820152602001610ecb565b50506000910152565b60008151808452610f04816020860160208601610ec8565b601f01601f19169290920160200192915050565b60208152600061077b6020830184610eec565b600060208284031215610f3d57600080fd5b5035919050565b6001600160a01b0381168114610ea857600080fd5b60008060408385031215610f6c57600080fd5b8235610f7781610f44565b946020939093013593505050565b600080600060608486031215610f9a57600080fd5b8335610fa581610f44565b92506020840135610fb581610f44565b929592945050506040919091013590565b600060208284031215610fd857600080fd5b813561077b81610f44565b60008060408385031215610ff657600080fd5b823561100181610f44565b91506020830135801515811461101657600080fd5b809150509250929050565b634e487b7160e01b600052604160045260246000fd5b6000806000806080858703121561104d57600080fd5b843561105881610f44565b9350602085013561106881610f44565b925060408501359150606085013567ffffffffffffffff81111561108b57600080fd5b8501601f8101871361109c57600080fd5b803567ffffffffffffffff8111156110b6576110b6611021565b604051601f8201601f19908116603f0116810167ffffffffffffffff811182821017156110e5576110e5611021565b6040528181528282016020018910156110fd57600080fd5b8160208401602083013760006020838301015280935050505092959194509250565b6000806040838503121561113257600080fd5b823561113d81610f44565b9150602083013561101681610f44565b600181811c9082168061116157607f821691505b60208210810361118157634e487b7160e01b600052602260045260246000fd5b50919050565b60006020828403121561119957600080fd5b815161077b81610f44565b600083516111b6818460208801610ec8565b8351908301906111ca818360208801610ec8565b01949350505050565b6001600160a01b038581168252841660208201526040810183905260806060820181905260009061120690830184610eec565b9695505050505050565b60006020828403121561122257600080fd5b815161077b81610e9256fea26469706673582212202d4c06c6a914c6ba3253df0235bbe13493d4719674a11d5c9b273b648a57782864736f6c634300081a0033","linkReferences":{}},"methodIdentifiers":{"PRODUCT()":"25425a91","approve(address,uint256)":"095ea7b3","balanceOf(address)":"70a08231","burn(uint256)":"42966c68","getApproved(uint256)":"081812fc","isApprovedForAll(address,address)":"e985e9c5","isExist(uint256)":"ca8f8ff3","isUserOwned(address,uint256)":"7d8102bf","mint(address,uint256)":"40c10f19","name()":"06fdde03","ownerOf(uint256)":"6352211e","safeTransferFrom(address,address,uint256)":"42842e0e","safeTransferFrom(address,address,uint256,bytes)":"b88d4fde","setApprovalForAll(address,bool)":"a22cb465","supportsInterface(bytes4)":"01ffc9a7","symbol()":"95d89b41","tokenURI(uint256)":"c87b56dd","transferFrom(address,address,uint256)":"23b872dd"},"id":0}