{"abi":[{"type":"constructor","inputs":[{"name":"initialOwner","type":"address","internalType":"address"},{"name":"productFactory","type":"address","internalType":"address"},{"name":"name","type":"string","internalType":"string"},{"name":"symbol","type":"string","internalType":"string"},{"name":"rentCurrencies","type":"address[]","internalType":"address[]"},{"name":"treasury","type":"address","internalType":"address payable"},{"name":"feePoints","type":"uint256","internalType":"uint256"}],"stateMutability":"nonpayable"},{"type":"function","name":"MAX_POINTS","inputs":[],"outputs":[{"name":"","type":"uint256","internalType":"uint256"}],"stateMutability":"view"},{"type":"function","name":"NATIVE_TOKEN","inputs":[],"outputs":[{"name":"","type":"address","internalType":"address"}],"stateMutability":"view"},{"type":"function","name":"PRODUCT_FACTORY","inputs":[],"outputs":[{"name":"","type":"address","internalType":"contract IProductFactory"}],"stateMutability":"view"},{"type":"function","name":"addRentCurrencies","inputs":[{"name":"rentCurrencies","type":"address[]","internalType":"address[]"}],"outputs":[],"stateMutability":"nonpayable"},{"type":"function","name":"approve","inputs":[{"name":"to","type":"address","internalType":"address"},{"name":"tokenId","type":"uint256","internalType":"uint256"}],"outputs":[],"stateMutability":"nonpayable"},{"type":"function","name":"balanceOf","inputs":[{"name":"owner","type":"address","internalType":"address"}],"outputs":[{"name":"","type":"uint256","internalType":"uint256"}],"stateMutability":"view"},{"type":"function","name":"delist","inputs":[{"name":"device","type":"address","internalType":"address"}],"outputs":[],"stateMutability":"nonpayable"},{"type":"function","name":"endLease","inputs":[{"name":"device","type":"address","internalType":"address"}],"outputs":[],"stateMutability":"nonpayable"},{"type":"function","name":"getAccessesByDevice","inputs":[{"name":"device","type":"address","internalType":"address"}],"outputs":[{"name":"","type":"uint256[]","internalType":"uint256[]"}],"stateMutability":"view"},{"type":"function","name":"getApproved","inputs":[{"name":"tokenId","type":"uint256","internalType":"uint256"}],"outputs":[{"name":"","type":"address","internalType":"address"}],"stateMutability":"view"},{"type":"function","name":"getDeviceBinding","inputs":[{"name":"device","type":"address","internalType":"address"}],"outputs":[{"name":"product","type":"address","internalType":"address"},{"name":"tokenId","type":"uint256","internalType":"uint256"}],"stateMutability":"view"},{"type":"function","name":"getDeviceByAccessId","inputs":[{"name":"accessId","type":"uint256","internalType":"uint256"}],"outputs":[{"name":"","type":"address","internalType":"address"}],"stateMutability":"view"},{"type":"function","name":"getListingInfo","inputs":[{"name":"device","type":"address","internalType":"address"}],"outputs":[{"name":"","type":"tuple","internalType":"struct IMarketplace.ListingInfo","components":[{"name":"minRentalDays","type":"uint256","internalType":"uint256"},{"name":"maxRentalDays","type":"uint256","internalType":"uint256"},{"name":"rentCurrency","type":"address","internalType":"address"},{"name":"dailyRent","type":"uint256","internalType":"uint256"},{"name":"rentRecipient","type":"address","internalType":"address payable"},{"name":"status","type":"uint8","internalType":"enum IMarketplace.ListingStatus"}]}],"stateMutability":"view"},{"type":"function","name":"getRentalInfo","inputs":[{"name":"device","type":"address","internalType":"address"}],"outputs":[{"name":"","type":"tuple","internalType":"struct IMarketplace.RentalInfo","components":[{"name":"accessId","type":"uint256","internalType":"uint256"},{"name":"startTime","type":"uint256","internalType":"uint256"},{"name":"endTime","type":"uint256","internalType":"uint256"},{"name":"rentalDays","type":"uint256","internalType":"uint256"},{"name":"rentCurrency","type":"address","internalType":"address"},{"name":"dailyRent","type":"uint256","internalType":"uint256"},{"name":"totalPaidRent","type":"uint256","internalType":"uint256"},{"name":"status","type":"uint8","internalType":"enum IMarketplace.RentalStatus"}]}],"stateMutability":"view"},{"type":"function","name":"isAccessible","inputs":[{"name":"device","type":"address","internalType":"address"},{"name":"user","type":"address","internalType":"address"}],"outputs":[{"name":"","type":"bool","internalType":"bool"}],"stateMutability":"view"},{"type":"function","name":"isApprovedForAll","inputs":[{"name":"owner","type":"address","internalType":"address"},{"name":"operator","type":"address","internalType":"address"}],"outputs":[{"name":"","type":"bool","internalType":"bool"}],"stateMutability":"view"},{"type":"function","name":"list","inputs":[{"name":"device","type":"address","internalType":"address"},{"name":"minRentalDays","type":"uint256","internalType":"uint256"},{"name":"maxRentalDays","type":"uint256","internalType":"uint256"},{"name":"rentCurrency","type":"address","internalType":"address"},{"name":"dailyRent","type":"uint256","internalType":"uint256"},{"name":"rentRecipient","type":"address","internalType":"address"},{"name":"accessURI","type":"string","internalType":"string"}],"outputs":[],"stateMutability":"nonpayable"},{"type":"function","name":"name","inputs":[],"outputs":[{"name":"","type":"string","internalType":"string"}],"stateMutability":"view"},{"type":"function","name":"owner","inputs":[],"outputs":[{"name":"","type":"address","internalType":"address"}],"stateMutability":"view"},{"type":"function","name":"ownerOf","inputs":[{"name":"tokenId","type":"uint256","internalType":"uint256"}],"outputs":[{"name":"","type":"address","internalType":"address"}],"stateMutability":"view"},{"type":"function","name":"payRent","inputs":[{"name":"device","type":"address","internalType":"address"},{"name":"rent_","type":"uint256","internalType":"uint256"}],"outputs":[],"stateMutability":"payable"},{"type":"function","name":"relist","inputs":[{"name":"device","type":"address","internalType":"address"},{"name":"minRentalDays","type":"uint256","internalType":"uint256"},{"name":"maxRentalDays","type":"uint256","internalType":"uint256"},{"name":"rentCurrency","type":"address","internalType":"address"},{"name":"dailyRent","type":"uint256","internalType":"uint256"},{"name":"rentRecipient","type":"address","internalType":"address"}],"outputs":[],"stateMutability":"nonpayable"},{"type":"function","name":"removeRentCurrencies","inputs":[{"name":"rentCurrencies","type":"address[]","internalType":"address[]"}],"outputs":[],"stateMutability":"nonpayable"},{"type":"function","name":"renounceOwnership","inputs":[],"outputs":[],"stateMutability":"nonpayable"},{"type":"function","name":"rent","inputs":[{"name":"device","type":"address","internalType":"address"},{"name":"tenant","type":"address","internalType":"address"},{"name":"rentalDays","type":"uint256","internalType":"uint256"},{"name":"prepaidRent","type":"uint256","internalType":"uint256"}],"outputs":[],"stateMutability":"payable"},{"type":"function","name":"safeTransferFrom","inputs":[{"name":"from","type":"address","internalType":"address"},{"name":"to","type":"address","internalType":"address"},{"name":"tokenId","type":"uint256","internalType":"uint256"}],"outputs":[],"stateMutability":"nonpayable"},{"type":"function","name":"safeTransferFrom","inputs":[{"name":"from","type":"address","internalType":"address"},{"name":"to","type":"address","internalType":"address"},{"name":"tokenId","type":"uint256","internalType":"uint256"},{"name":"data","type":"bytes","internalType":"bytes"}],"outputs":[],"stateMutability":"nonpayable"},{"type":"function","name":"setApprovalForAll","inputs":[{"name":"operator","type":"address","internalType":"address"},{"name":"approved","type":"bool","internalType":"bool"}],"outputs":[],"stateMutability":"nonpayable"},{"type":"function","name":"setFeePoints","inputs":[{"name":"feePoints","type":"uint256","internalType":"uint256"}],"outputs":[],"stateMutability":"nonpayable"},{"type":"function","name":"setTreasury","inputs":[{"name":"treasury","type":"address","internalType":"address payable"}],"outputs":[],"stateMutability":"nonpayable"},{"type":"function","name":"supportedRentCurrencies","inputs":[{"name":"","type":"address","internalType":"address"}],"outputs":[{"name":"","type":"bool","internalType":"bool"}],"stateMutability":"view"},{"type":"function","name":"supportsInterface","inputs":[{"name":"interfaceId","type":"bytes4","internalType":"bytes4"}],"outputs":[{"name":"","type":"bool","internalType":"bool"}],"stateMutability":"view"},{"type":"function","name":"symbol","inputs":[],"outputs":[{"name":"","type":"string","internalType":"string"}],"stateMutability":"view"},{"type":"function","name":"tokenByIndex","inputs":[{"name":"index","type":"uint256","internalType":"uint256"}],"outputs":[{"name":"","type":"uint256","internalType":"uint256"}],"stateMutability":"view"},{"type":"function","name":"tokenOfOwnerByIndex","inputs":[{"name":"owner","type":"address","internalType":"address"},{"name":"index","type":"uint256","internalType":"uint256"}],"outputs":[{"name":"","type":"uint256","internalType":"uint256"}],"stateMutability":"view"},{"type":"function","name":"tokenURI","inputs":[{"name":"accessId","type":"uint256","internalType":"uint256"}],"outputs":[{"name":"","type":"string","internalType":"string"}],"stateMutability":"view"},{"type":"function","name":"totalSupply","inputs":[],"outputs":[{"name":"","type":"uint256","internalType":"uint256"}],"stateMutability":"view"},{"type":"function","name":"transferFrom","inputs":[{"name":"from","type":"address","internalType":"address"},{"name":"to","type":"address","internalType":"address"},{"name":"tokenId","type":"uint256","internalType":"uint256"}],"outputs":[],"stateMutability":"nonpayable"},{"type":"function","name":"transferOwnership","inputs":[{"name":"newOwner","type":"address","internalType":"address"}],"outputs":[],"stateMutability":"nonpayable"},{"type":"function","name":"withdraw","inputs":[{"name":"device","type":"address","internalType":"address"}],"outputs":[],"stateMutability":"nonpayable"},{"type":"event","name":"Approval","inputs":[{"name":"owner","type":"address","indexed":true,"internalType":"address"},{"name":"approved","type":"address","indexed":true,"internalType":"address"},{"name":"tokenId","type":"uint256","indexed":true,"internalType":"uint256"}],"anonymous":false},{"type":"event","name":"ApprovalForAll","inputs":[{"name":"owner","type":"address","indexed":true,"internalType":"address"},{"name":"operator","type":"address","indexed":true,"internalType":"address"},{"name":"approved","type":"bool","indexed":false,"internalType":"bool"}],"anonymous":false},{"type":"event","name":"Delist","inputs":[{"name":"owner","type":"address","indexed":true,"internalType":"address"},{"name":"device","type":"address","indexed":true,"internalType":"address"}],"anonymous":false},{"type":"event","name":"EndLease","inputs":[{"name":"device","type":"address","indexed":true,"internalType":"address"},{"name":"operator","type":"address","indexed":false,"internalType":"address"}],"anonymous":false},{"type":"event","name":"List","inputs":[{"name":"owner","type":"address","indexed":true,"internalType":"address"},{"name":"device","type":"address","indexed":true,"internalType":"address"},{"name":"minRentalDays","type":"uint256","indexed":false,"internalType":"uint256"},{"name":"maxRentalDays","type":"uint256","indexed":false,"internalType":"uint256"},{"name":"rentCurrency","type":"address","indexed":false,"internalType":"address"},{"name":"dailyRent","type":"uint256","indexed":false,"internalType":"uint256"},{"name":"rentRecipient","type":"address","indexed":false,"internalType":"address"}],"anonymous":false},{"type":"event","name":"OwnershipTransferred","inputs":[{"name":"previousOwner","type":"address","indexed":true,"internalType":"address"},{"name":"newOwner","type":"address","indexed":true,"internalType":"address"}],"anonymous":false},{"type":"event","name":"PayRent","inputs":[{"name":"device","type":"address","indexed":true,"internalType":"address"},{"name":"rent","type":"uint256","indexed":false,"internalType":"uint256"}],"anonymous":false},{"type":"event","name":"Relist","inputs":[{"name":"owner","type":"address","indexed":true,"internalType":"address"},{"name":"device","type":"address","indexed":true,"internalType":"address"},{"name":"minRentalDays","type":"uint256","indexed":false,"internalType":"uint256"},{"name":"maxRentalDays","type":"uint256","indexed":false,"internalType":"uint256"},{"name":"rentCurrency","type":"address","indexed":false,"internalType":"address"},{"name":"dailyRent","type":"uint256","indexed":false,"internalType":"uint256"},{"name":"rentRecipient","type":"address","indexed":false,"internalType":"address"}],"anonymous":false},{"type":"event","name":"Rent","inputs":[{"name":"device","type":"address","indexed":true,"internalType":"address"},{"name":"accessId","type":"uint256","indexed":true,"internalType":"uint256"},{"name":"tenant","type":"address","indexed":true,"internalType":"address"},{"name":"startTime","type":"uint256","indexed":false,"internalType":"uint256"},{"name":"endTime","type":"uint256","indexed":false,"internalType":"uint256"},{"name":"rentalDays","type":"uint256","indexed":false,"internalType":"uint256"},{"name":"prepaidRent","type":"uint256","indexed":false,"internalType":"uint256"}],"anonymous":false},{"type":"event","name":"Transfer","inputs":[{"name":"from","type":"address","indexed":true,"internalType":"address"},{"name":"to","type":"address","indexed":true,"internalType":"address"},{"name":"tokenId","type":"uint256","indexed":true,"internalType":"uint256"}],"anonymous":false},{"type":"event","name":"Withdraw","inputs":[{"name":"owner","type":"address","indexed":true,"internalType":"address"},{"name":"device","type":"address","indexed":true,"internalType":"address"}],"anonymous":false},{"type":"error","name":"AccessAlreadyGranted","inputs":[]},{"type":"error","name":"AddressEmptyCode","inputs":[{"name":"target","type":"address","internalType":"address"}]},{"type":"error","name":"AddressInsufficientBalance","inputs":[{"name":"account","type":"address","internalType":"address"}]},{"type":"error","name":"ERC721EnumerableForbiddenBatchMint","inputs":[]},{"type":"error","name":"ERC721IncorrectOwner","inputs":[{"name":"sender","type":"address","internalType":"address"},{"name":"tokenId","type":"uint256","internalType":"uint256"},{"name":"owner","type":"address","internalType":"address"}]},{"type":"error","name":"ERC721InsufficientApproval","inputs":[{"name":"operator","type":"address","internalType":"address"},{"name":"tokenId","type":"uint256","internalType":"uint256"}]},{"type":"error","name":"ERC721InvalidApprover","inputs":[{"name":"approver","type":"address","internalType":"address"}]},{"type":"error","name":"ERC721InvalidOperator","inputs":[{"name":"operator","type":"address","internalType":"address"}]},{"type":"error","name":"ERC721InvalidOwner","inputs":[{"name":"owner","type":"address","internalType":"address"}]},{"type":"error","name":"ERC721InvalidReceiver","inputs":[{"name":"receiver","type":"address","internalType":"address"}]},{"type":"error","name":"ERC721InvalidSender","inputs":[{"name":"sender","type":"address","internalType":"address"}]},{"type":"error","name":"ERC721NonexistentToken","inputs":[{"name":"tokenId","type":"uint256","internalType":"uint256"}]},{"type":"error","name":"ERC721OutOfBoundsIndex","inputs":[{"name":"owner","type":"address","internalType":"address"},{"name":"index","type":"uint256","internalType":"uint256"}]},{"type":"error","name":"FailedInnerCall","inputs":[]},{"type":"error","name":"NotProductDeviceOwner","inputs":[]},{"type":"error","name":"OwnableInvalidOwner","inputs":[{"name":"owner","type":"address","internalType":"address"}]},{"type":"error","name":"OwnableUnauthorizedAccount","inputs":[{"name":"account","type":"address","internalType":"address"}]},{"type":"error","name":"SafeERC20FailedOperation","inputs":[{"name":"token","type":"address","internalType":"address"}]}],"bytecode":{"object":"0x608060405234801561001057600080fd5b50604051613bd1380380613bd183398101604081905261002f91610302565b86868686818160006100418382610465565b50600161004e8282610465565b5050600a80546001600160a01b0319166001600160a01b0395861617905550506001600b5550811661009a57604051631e4fbdf760e01b81526000600482015260240160405180910390fd5b6100a381610132565b5060005b8351811015610102576001601260008684815181106100c8576100c8610523565b6020908102919091018101516001600160a01b03168252810191909152604001600020805460ff19169115159190911790556001016100a7565b50601080546001600160a01b0319166001600160a01b039390931692909217909155601155506105399350505050565b600f80546001600160a01b038381166001600160a01b0319831681179093556040519116919082907f8be0079c531659141344cd1fd0a4f28419497f9722a3daafe3b4186f6b6457e090600090a35050565b6001600160a01b038116811461019957600080fd5b50565b80516101a781610184565b919050565b634e487b7160e01b600052604160045260246000fd5b604051601f8201601f191681016001600160401b03811182821017156101ea576101ea6101ac565b604052919050565b600082601f83011261020357600080fd5b81516001600160401b0381111561021c5761021c6101ac565b61022f601f8201601f19166020016101c2565b81815284602083860101111561024457600080fd5b60005b8281101561026357602081860181015183830182015201610247565b506000918101602001919091529392505050565b600082601f83011261028857600080fd5b81516001600160401b038111156102a1576102a16101ac565b8060051b6102b1602082016101c2565b918252602081850181019290810190868411156102cd57600080fd5b6020860192505b838310156102f85782516102e781610184565b8252602092830192909101906102d4565b9695505050505050565b600080600080600080600060e0888a03121561031d57600080fd5b875161032881610184565b96506103366020890161019c565b60408901519096506001600160401b0381111561035257600080fd5b61035e8a828b016101f2565b60608a015190965090506001600160401b0381111561037c57600080fd5b6103888a828b016101f2565b60808a015190955090506001600160401b038111156103a657600080fd5b6103b28a828b01610277565b9350506103c160a0890161019c565b9150600060c089015190508091505092959891949750929550565b600181811c908216806103f057607f821691505b60208210810361041057634e487b7160e01b600052602260045260246000fd5b50919050565b601f82111561046057806000526020600020601f840160051c8101602085101561043d5750805b601f840160051c820191505b8181101561045d5760008155600101610449565b50505b505050565b81516001600160401b0381111561047e5761047e6101ac565b6104928161048c84546103dc565b84610416565b6020601f8211600181146104c657600083156104ae5750848201515b600019600385901b1c1916600184901b17845561045d565b600084815260208120601f198516915b828110156104f657878501518255602094850194600190920191016104d6565b50848210156105145786840151600019600387901b60f8161c191681555b50505050600190811b01905550565b634e487b7160e01b600052603260045260246000fd5b613689806105486000396000f3fe60806040526004361061023b5760003560e01c806363ca2ffe1161012e578063b88d4fde116100ab578063e05aa5101161006f578063e05aa510146106e8578063e985e9c514610708578063f0f4426014610728578063f1908a0414610748578063f2fde38b1461077557600080fd5b8063b88d4fde14610625578063c1898c1814610645578063c87b56dd14610665578063d0ed785114610685578063d55c1325146106bb57600080fd5b80637bc2c4bc116100f25780637bc2c4bc146105825780638da5cb5b146105a257806395d89b41146105c0578063a22cb465146105d5578063a451a0a1146105f557600080fd5b806363ca2ffe146104ce5780636b2cc75c146104ee57806370a082311461050e578063715018a61461052e5780637741139f1461054357600080fd5b806325f87d23116101bc5780634f6ccce7116101805780634f6ccce71461043b57806351cff8d91461045b57806355e0812e1461047b578063622275f01461049b5780636352211e146104ae57600080fd5b806325f87d23146103b05780632f745c59146103c657806331f7d964146103e65780633e844b88146103fb57806342842e0e1461041b57600080fd5b80631320a8cb116102035780631320a8cb1461031157806318160ddd1461033e5780631f162d201461035d578063202e5e101461037d57806323b872dd1461039057600080fd5b806301ffc9a71461024057806306fdde0314610275578063081812fc14610297578063095ea7b3146102cf5780630d831203146102f1575b600080fd5b34801561024c57600080fd5b5061026061025b366004612d21565b610795565b60405190151581526020015b60405180910390f35b34801561028157600080fd5b5061028a6107c0565b60405161026c9190612d8e565b3480156102a357600080fd5b506102b76102b2366004612da1565b610852565b6040516001600160a01b03909116815260200161026c565b3480156102db57600080fd5b506102ef6102ea366004612dcf565b61087b565b005b3480156102fd57600080fd5b506102ef61030c366004612da1565b61088a565b34801561031d57600080fd5b5061033161032c366004612dfb565b610897565b60405161026c9190612e2e565b34801561034a57600080fd5b506008545b60405190815260200161026c565b34801561036957600080fd5b506102ef610378366004612ee8565b610949565b6102ef61038b366004612dcf565b6109af565b34801561039c57600080fd5b506102ef6103ab366004612fa1565b610b1a565b3480156103bc57600080fd5b5061034f61271081565b3480156103d257600080fd5b5061034f6103e1366004612dcf565b610ba5565b3480156103f257600080fd5b506102b7600081565b34801561040757600080fd5b506102ef610416366004612ee8565b610c0a565b34801561042757600080fd5b506102ef610436366004612fa1565b610c70565b34801561044757600080fd5b5061034f610456366004612da1565b610c90565b34801561046757600080fd5b506102ef610476366004612dfb565b610ce9565b34801561048757600080fd5b506102ef61049636600461303e565b610e57565b6102ef6104a93660046130e4565b6111f2565b3480156104ba57600080fd5b506102b76104c9366004612da1565b6115ab565b3480156104da57600080fd5b50600a546102b7906001600160a01b031681565b3480156104fa57600080fd5b506102ef610509366004612dfb565b6115b6565b34801561051a57600080fd5b5061034f610529366004612dfb565b6116b9565b34801561053a57600080fd5b506102ef611701565b34801561054f57600080fd5b5061056361055e366004612dfb565b611715565b604080516001600160a01b03909316835260208301919091520161026c565b34801561058e57600080fd5b506102ef61059d36600461312a565b61179c565b3480156105ae57600080fd5b50600f546001600160a01b03166102b7565b3480156105cc57600080fd5b5061028a611a0e565b3480156105e157600080fd5b506102ef6105f036600461319f565b611a1d565b34801561060157600080fd5b50610260610610366004612dfb565b60126020526000908152604090205460ff1681565b34801561063157600080fd5b506102ef6106403660046131d8565b611a28565b34801561065157600080fd5b50610260610660366004613258565b611a3f565b34801561067157600080fd5b5061028a610680366004612da1565b611af6565b34801561069157600080fd5b506102b76106a0366004612da1565b6000908152600d60205260409020546001600160a01b031690565b3480156106c757600080fd5b506106db6106d6366004612dfb565b611bb2565b60405161026c9190613286565b3480156106f457600080fd5b506102ef610703366004612dfb565b611c1e565b34801561071457600080fd5b50610260610723366004613258565b611d1a565b34801561073457600080fd5b506102ef610743366004612dfb565b611d48565b34801561075457600080fd5b50610768610763366004612dfb565b611d72565b60405161026c91906132c9565b34801561078157600080fd5b506102ef610790366004612dfb565b611e37565b60006001600160e01b0319821663b379f4f360e01b14806107ba57506107ba82611e75565b92915050565b6060600080546107cf9061332f565b80601f01602080910402602001604051908101604052809291908181526020018280546107fb9061332f565b80156108485780601f1061081d57610100808354040283529160200191610848565b820191906000526020600020905b81548152906001019060200180831161082b57829003601f168201915b5050505050905090565b600061085d82611e9a565b506000828152600460205260409020546001600160a01b03166107ba565b610886828233611ed3565b5050565b610892611ee0565b601155565b61089f612cad565b6001600160a01b0380831660009081526014602090815260409182902082516101008101845281548152600180830154938201939093526002820154938101939093526003810154606084015260048101549093166080830152600583015460a0830152600683015460c0830152600783015491929160e084019160ff9091169081111561092f5761092f612e18565b600181111561094057610940612e18565b90525092915050565b610951611ee0565b60005b81518110156108865760006012600084848151811061097557610975613369565b6020908102919091018101516001600160a01b03168252810191909152604001600020805460ff1916911515919091179055600101610954565b6001600160a01b038281166000908152601360209081526040808320815160c081018352815481526001820154938101939093526002808201548616928401929092526003810154606084015260048101549485166080840152929391929160a0840191600160a01b90910460ff1690811115610a2e57610a2e612e18565b6002811115610a3f57610a3f612e18565b9052506001600160a01b0384166000908152601460205260409020600581015460038201549293509091610a739190613395565b838260060154610a8391906133ac565b1115610ac65760405162461bcd60e51b815260206004820152600d60248201526c1d1bdbc81b5d58da081c995b9d609a1b60448201526064015b60405180910390fd5b610ad1828285611f0d565b836001600160a01b03167fb2f67070fde459a24bdcc585085a388cb1d0b2297027e1707689e3516304da5984604051610b0c91815260200190565b60405180910390a250505050565b6001600160a01b038216610b4457604051633250574960e11b815260006004820152602401610abd565b6000610b51838333612096565b9050836001600160a01b0316816001600160a01b031614610b9f576040516364283d7b60e01b81526001600160a01b0380861660048301526024820184905282166044820152606401610abd565b50505050565b6000610bb0836116b9565b8210610be15760405163295f44f760e21b81526001600160a01b038416600482015260248101839052604401610abd565b506001600160a01b03919091166000908152600660209081526040808320938352929052205490565b610c12611ee0565b60005b815181101561088657600160126000848481518110610c3657610c36613369565b6020908102919091018101516001600160a01b03168252810191909152604001600020805460ff1916911515919091179055600101610c15565b610c8b83838360405180602001604052806000815250611a28565b505050565b6000610c9b60085490565b8210610cc45760405163295f44f760e21b81526000600482015260248101839052604401610abd565b60088281548110610cd757610cd7613369565b90600052602060002001549050919050565b80600080610cf683611715565b6040516331a9108f60e11b815260048101829052919350915033906001600160a01b03841690636352211e90602401602060405180830381865afa158015610d42573d6000803e3d6000fd5b505050506040513d601f19601f82011682018060405250810190610d6691906133bf565b6001600160a01b031614610d8c5760405162461bcd60e51b8152600401610abd906133dc565b6001600160a01b0384166000908152601360209081526040808320601490925282209091600782015460ff166001811115610dc957610dc9612e18565b14610e0a5760405162461bcd60e51b815260206004820152601160248201527019195d9a58d9481a185cc81d195b985b9d607a1b6044820152606401610abd565b60048201805460ff60a01b191690556040516001600160a01b0387169033907f34d58c18c6c1df2c698ccac556acea92941ca7b99d2fccf9e3ac1852d0dec36f90600090a3505050505050565b86600080610e6483611715565b6040516331a9108f60e11b815260048101829052919350915033906001600160a01b03841690636352211e90602401602060405180830381865afa158015610eb0573d6000803e3d6000fd5b505050506040513d601f19601f82011682018060405250810190610ed491906133bf565b6001600160a01b031614610efa5760405162461bcd60e51b8152600401610abd906133dc565b60006001600160a01b038b16600090815260136020526040902060040154600160a01b900460ff166002811115610f3357610f33612e18565b14610f775760405162461bcd60e51b81526020600482015260146024820152731d1bdad95b88185b1c9958591e481b1a5cdd195960621b6044820152606401610abd565b60008911610fc75760405162461bcd60e51b815260206004820152601b60248201527f696e76616c6964206d696e696d756d2072656e74616c206461797300000000006044820152606401610abd565b888810156110175760405162461bcd60e51b815260206004820152601b60248201527f696e76616c6964206d6178696d756d2072656e74616c206461797300000000006044820152606401610abd565b6001600160a01b038716158061104557506001600160a01b03871660009081526012602052604090205460ff165b61108d5760405162461bcd60e51b8152602060048201526019602482015278756e737570706f727465642072656e742063757272656e637960381b6044820152606401610abd565b6040518060c001604052808a8152602001898152602001886001600160a01b03168152602001878152602001866001600160a01b03168152602001600160028111156110db576110db612e18565b90526001600160a01b03808c166000908152601360209081526040918290208451815590840151600182015590830151600280830180549285166001600160a01b0319938416179055606085015160038401556080850151600484018054919095169281168317855560a08601519394926001600160a81b03199091161790600160a01b90849081111561117157611171612e18565b02179055509050506111838a8561216d565b604080518a8152602081018a90526001600160a01b0389811692820192909252606081018890528682166080820152908b169033907f4cadc0254e0973398f06d362f5bff507638f068c2b61f4239d78d660755e7d619060a0015b60405180910390a350505050505050505050565b6001600160a01b03841660009081526014602052604081206007015460ff16600181111561122257611222612e18565b146112615760405162461bcd60e51b815260206004820152600f60248201526e195e1a5cdd1a5b99c81c995b9d185b608a1b6044820152606401610abd565b6001600160a01b038481166000908152601360209081526040808320815160c081018352815481526001820154938101939093526002808201548616928401929092526003810154606084015260048101549485166080840152929391929160a0840191600160a01b90910460ff16908111156112e0576112e0612e18565b60028111156112f1576112f1612e18565b905250905060018160a00151600281111561130e5761130e612e18565b146113495760405162461bcd60e51b815260206004820152600b60248201526a6e6f74206c697374696e6760a81b6044820152606401610abd565b8051831080159061135e575080602001518311155b6113a05760405162461bcd60e51b8152602060048201526013602482015272696e76616c69642072656e74616c206461797360681b6044820152606401610abd565b606081015181516113b19190613395565b8210156114005760405162461bcd60e51b815260206004820152601960248201527f696e73756666696369656e7420707265706169642072656e74000000000000006044820152606401610abd565b600061140c858761218f565b905042600061141e8662015180613395565b61142890426133ac565b905060405180610100016040528084815260200183815260200182815260200187815260200185604001516001600160a01b03168152602001856060015181526020016000815260200160018081111561148457611484612e18565b90526001600160a01b0389811660009081526014602090815260409182902084518155908401516001808301919091559184015160028201556060840151600382015560808401516004820180546001600160a01b031916919094161790925560a0830151600583015560c0830151600683015560e08301516007830180549192909160ff191690838181111561151d5761151d612e18565b021790555050506001600160a01b038816600090815260146020526040902061154890859087611f0d565b6040805183815260208101839052908101879052606081018690526001600160a01b038089169185918b16907f4db5be5275bd4130429c3fee6d81dc1cc77cb1b76c7206474dbac3ace43c78b59060800160405180910390a45050505050505050565b60006107ba82611e9a565b806000806115c383611715565b6040516331a9108f60e11b815260048101829052919350915033906001600160a01b03841690636352211e90602401602060405180830381865afa15801561160f573d6000803e3d6000fd5b505050506040513d601f19601f8201168201806040525081019061163391906133bf565b6001600160a01b0316146116595760405162461bcd60e51b8152600401610abd906133dc565b6001600160a01b03841660008181526013602052604080822060048101805460ff60a01b1916600160a11b179055905190929133917fcfdcdd2609b1db5a39336831b42e0eeab00e058f0bd702d4d2de4e7e2a3f78229190a35050505050565b60006001600160a01b0382166116e5576040516322718ad960e21b815260006004820152602401610abd565b506001600160a01b031660009081526003602052604090205490565b611709611ee0565b6117136000612272565b565b600a54604051637741139f60e01b81526001600160a01b0383811660048301526000928392839290911690637741139f906024016040805180830381865afa158015611765573d6000803e3d6000fd5b505050506040513d601f19601f820116820180604052508101906117899190613406565b8051602090910151909590945092505050565b856000806117a983611715565b6040516331a9108f60e11b815260048101829052919350915033906001600160a01b03841690636352211e90602401602060405180830381865afa1580156117f5573d6000803e3d6000fd5b505050506040513d601f19601f8201168201806040525081019061181991906133bf565b6001600160a01b03161461183f5760405162461bcd60e51b8152600401610abd906133dc565b6001600160a01b0389166000908152601360205260409020886118a45760405162461bcd60e51b815260206004820152601b60248201527f696e76616c6964206d696e696d756d2072656e74616c206461797300000000006044820152606401610abd565b888810156118f45760405162461bcd60e51b815260206004820152601b60248201527f696e76616c6964206d6178696d756d2072656e74616c206461797300000000006044820152606401610abd565b6001600160a01b038716158061192257506001600160a01b03871660009081526012602052604090205460ff165b61196a5760405162461bcd60e51b8152602060048201526019602482015278756e737570706f727465642072656e742063757272656e637960381b6044820152606401610abd565b888155600181018890556002810180546001600160a01b038981166001600160a01b03199092168217909255600383018890556004830180548884166001600160a81b03199091168117600160a01b17909155604080518d8152602081018d905290810192909252606082018990526080820152908b169033907fdd02a82702deb921fe48b91829443f22212a10030ee5fc9c8d97d8e36a154d379060a0016111de565b6060600180546107cf9061332f565b6108863383836122c4565b611a33848484610b1a565b610b9f84848484612363565b6000805b6001600160a01b0384166000908152600c6020526040902054811015611aec57826001600160a01b0316611acc600c6000876001600160a01b03166001600160a01b031681526020019081526020016000208381548110611aa657611aa6613369565b90600052602060002001546000908152600260205260409020546001600160a01b031690565b6001600160a01b031603611ae45760019150506107ba565b600101611a43565b5060009392505050565b6000818152600d60209081526040808320546001600160a01b0316808452600e90925290912080546060929190611b2c9061332f565b80601f0160208091040260200160405190810160405280929190818152602001828054611b589061332f565b8015611ba55780601f10611b7a57610100808354040283529160200191611ba5565b820191906000526020600020905b815481529060010190602001808311611b8857829003601f168201915b5050505050915050919050565b6001600160a01b0381166000908152600c6020908152604091829020805483518184028101840190945280845260609392830182828015611c1257602002820191906000526020600020905b815481526020019060010190808311611bfe575b50505050509050919050565b6001600160a01b038116600090815260146020526040812060058101546001820154919291620151809190611c539042613460565b611c5d9190613395565b611c679190613473565b90504282600201541080611c7e5750808260060154105b611cbd5760405162461bcd60e51b815260206004820152601060248201526f63616e6e6f7420656e64206c6561736560801b6044820152606401610abd565b611ccb83836000015461248c565b60078201805460ff191690556040513381526001600160a01b038416907f7207be407e6105cf740697ec3b730c2ce7688d7e8f974698f71445b63fcbe44c9060200160405180910390a2505050565b6001600160a01b03918216600090815260056020908152604080832093909416825291909152205460ff1690565b611d50611ee0565b601080546001600160a01b0319166001600160a01b0392909216919091179055565b611da86040805160c08101825260008082526020820181905291810182905260608101829052608081018290529060a082015290565b6001600160a01b03828116600090815260136020908152604091829020825160c0810184528154815260018201549281019290925260028082015485169383019390935260038101546060830152600481015493841660808301529092909160a0840191600160a01b900460ff1690811115611e2657611e26612e18565b600281111561094057610940612e18565b611e3f611ee0565b6001600160a01b038116611e6957604051631e4fbdf760e01b815260006004820152602401610abd565b611e7281612272565b50565b60006001600160e01b0319821663780e9d6360e01b14806107ba57506107ba8261257a565b6000818152600260205260408120546001600160a01b0316806107ba57604051637e27328960e01b815260048101849052602401610abd565b610c8b83838360016125ca565b600f546001600160a01b031633146117135760405163118cdaa760e01b8152336004820152602401610abd565b601154600090819015801590611f4b5761271060115485611f2e9190613395565b611f389190613473565b9250611f448385613460565b9150611f4f565b8391505b60048501546001600160a01b031661202c57833414611fa75760405162461bcd60e51b81526020600482015260146024820152731a5b9d985b1a59081c1c995c185a59081c995b9d60621b6044820152606401610abd565b85608001516001600160a01b03166108fc839081150290604051600060405180830381858888f19350505050158015611fe4573d6000803e3d6000fd5b508015612027576010546040516001600160a01b039091169084156108fc029085906000818181858888f19350505050158015612025573d6000803e3d6000fd5b505b612075565b6080860151600486015461204e916001600160a01b03909116903390856126d0565b8015612075576010546004860154612075916001600160a01b0391821691339116866126d0565b8385600601600082825461208991906133ac565b9091555050505050505050565b6000806120a485858561272a565b90506001600160a01b038116612101576120fc84600880546000838152600960205260408120829055600182018355919091527ff3f7a9fe364faab93b216da50a3214154f22a0a2b415b23a84c8169e8b636ee30155565b612124565b846001600160a01b0316816001600160a01b031614612124576121248185612823565b6001600160a01b0385166121405761213b846128b4565b612163565b846001600160a01b0316816001600160a01b031614612163576121638585612963565b90505b9392505050565b6001600160a01b0382166000908152600e60205260409020610c8b82826134dc565b60008061219b846116b9565b905060005b818110156121ff57836001600160a01b0316600d60006121bf84610c90565b81526020810191909152604001600020546001600160a01b0316036121f7576040516342beec5560e11b815260040160405180910390fd5b6001016121a0565b50600b8054600091826122118361359b565b91905055905061222185826129b3565b6001600160a01b0384166000818152600c60209081526040808320805460018101825590845282842001859055848352600d909152902080546001600160a01b031916909117905591505092915050565b600f80546001600160a01b038381166001600160a01b0319831681179093556040519116919082907f8be0079c531659141344cd1fd0a4f28419497f9722a3daafe3b4186f6b6457e090600090a35050565b6001600160a01b0382166122f657604051630b61174360e31b81526001600160a01b0383166004820152602401610abd565b6001600160a01b03838116600081815260056020908152604080832094871680845294825291829020805460ff191686151590811790915591519182527f17307eab39ab6107e8899845ad3d59bd9653f200f220920489ca2b5937696c31910160405180910390a3505050565b6001600160a01b0383163b15610b9f57604051630a85bd0160e11b81526001600160a01b0384169063150b7a02906123a59033908890879087906004016135b4565b6020604051808303816000875af19250505080156123e0575060408051601f3d908101601f191682019092526123dd918101906135e7565b60015b612449573d80801561240e576040519150601f19603f3d011682016040523d82523d6000602084013e612413565b606091505b50805160000361244157604051633250574960e11b81526001600160a01b0385166004820152602401610abd565b805181602001fd5b6001600160e01b03198116630a85bd0160e11b1461248557604051633250574960e11b81526001600160a01b0385166004820152602401610abd565b5050505050565b61249581612a18565b6001600160a01b0382166000908152600c60205260408120905b815481101561255957828282815481106124cb576124cb613369565b90600052602060002001540361255157815482906124eb90600190613460565b815481106124fb576124fb613369565b906000526020600020015482828154811061251857612518613369565b90600052602060002001819055508180548061253657612536613604565b60019003818190600052602060002001600090559055612559565b6001016124af565b50506000908152600d6020526040902080546001600160a01b031916905550565b60006001600160e01b031982166380ac58cd60e01b14806125ab57506001600160e01b03198216635b5e139f60e01b145b806107ba57506301ffc9a760e01b6001600160e01b03198316146107ba565b80806125de57506001600160a01b03821615155b156126a05760006125ee84611e9a565b90506001600160a01b0383161580159061261a5750826001600160a01b0316816001600160a01b031614155b801561262d575061262b8184611d1a565b155b156126565760405163a9fbf51f60e01b81526001600160a01b0384166004820152602401610abd565b811561269e5783856001600160a01b0316826001600160a01b03167f8c5be1e5ebec7d5bd14f71427d1e84f3dd0314c0f7b2291e5b200ac8c7c3b92560405160405180910390a45b505b5050600090815260046020526040902080546001600160a01b0319166001600160a01b0392909216919091179055565b604080516001600160a01b0385811660248301528416604482015260648082018490528251808303909101815260849091019091526020810180516001600160e01b03166323b872dd60e01b179052610b9f908590612a53565b6000828152600260205260408120546001600160a01b039081169083161561275757612757818486612ab6565b6001600160a01b03811615612795576127746000856000806125ca565b6001600160a01b038116600090815260036020526040902080546000190190555b6001600160a01b038516156127c4576001600160a01b0385166000908152600360205260409020805460010190555b60008481526002602052604080822080546001600160a01b0319166001600160a01b0389811691821790925591518793918516917fddf252ad1be2c89b69c2b068fc378daa952ba7f163c4a11628f55a4df523b3ef91a4949350505050565b600061282e836116b9565b600083815260076020526040902054909150808214612881576001600160a01b03841660009081526006602090815260408083208584528252808320548484528184208190558352600790915290208190555b5060009182526007602090815260408084208490556001600160a01b039094168352600681528383209183525290812055565b6008546000906128c690600190613460565b600083815260096020526040812054600880549394509092849081106128ee576128ee613369565b90600052602060002001549050806008838154811061290f5761290f613369565b600091825260208083209091019290925582815260099091526040808220849055858252812055600880548061294757612947613604565b6001900381819060005260206000200160009055905550505050565b60006001612970846116b9565b61297a9190613460565b6001600160a01b039093166000908152600660209081526040808320868452825280832085905593825260079052919091209190915550565b6001600160a01b0382166129dd57604051633250574960e11b815260006004820152602401610abd565b60006129eb83836000612096565b90506001600160a01b03811615610c8b576040516339e3563760e11b815260006004820152602401610abd565b6000612a276000836000612096565b90506001600160a01b03811661088657604051637e27328960e01b815260048101839052602401610abd565b6000612a686001600160a01b03841683612b1a565b90508051600014158015612a8d575080806020019051810190612a8b919061361a565b155b15610c8b57604051635274afe760e01b81526001600160a01b0384166004820152602401610abd565b612ac1838383612b28565b610c8b576001600160a01b038316612aef57604051637e27328960e01b815260048101829052602401610abd565b60405163177e802f60e01b81526001600160a01b038316600482015260248101829052604401610abd565b606061216683836000612b8b565b60006001600160a01b038316158015906121635750826001600160a01b0316846001600160a01b03161480612b625750612b628484611d1a565b806121635750506000908152600460205260409020546001600160a01b03908116911614919050565b606081471015612bb05760405163cd78605960e01b8152306004820152602401610abd565b600080856001600160a01b03168486604051612bcc9190613637565b60006040518083038185875af1925050503d8060008114612c09576040519150601f19603f3d011682016040523d82523d6000602084013e612c0e565b606091505b5091509150612c1e868383612c28565b9695505050505050565b606082612c3d57612c3882612c84565b612166565b8151158015612c5457506001600160a01b0384163b155b15612c7d57604051639996b31560e01b81526001600160a01b0385166004820152602401610abd565b5080612166565b805115612c945780518082602001fd5b604051630a12f52160e11b815260040160405180910390fd5b6040518061010001604052806000815260200160008152602001600081526020016000815260200160006001600160a01b03168152602001600081526020016000815260200160006001811115612d0657612d06612e18565b905290565b6001600160e01b031981168114611e7257600080fd5b600060208284031215612d3357600080fd5b813561216681612d0b565b60005b83811015612d59578181015183820152602001612d41565b50506000910152565b60008151808452612d7a816020860160208601612d3e565b601f01601f19169290920160200192915050565b6020815260006121666020830184612d62565b600060208284031215612db357600080fd5b5035919050565b6001600160a01b0381168114611e7257600080fd5b60008060408385031215612de257600080fd5b8235612ded81612dba565b946020939093013593505050565b600060208284031215612e0d57600080fd5b813561216681612dba565b634e487b7160e01b600052602160045260246000fd5b6000610100820190508251825260208301516020830152604083015160408301526060830151606083015260018060a01b03608084015116608083015260a083015160a083015260c083015160c083015260e083015160028110612e9457612e94612e18565b8060e08401525092915050565b634e487b7160e01b600052604160045260246000fd5b604051601f8201601f1916810167ffffffffffffffff81118282101715612ee057612ee0612ea1565b604052919050565b600060208284031215612efa57600080fd5b813567ffffffffffffffff811115612f1157600080fd5b8201601f81018413612f2257600080fd5b803567ffffffffffffffff811115612f3c57612f3c612ea1565b8060051b612f4c60208201612eb7565b91825260208184018101929081019087841115612f6857600080fd5b6020850194505b83851015612f965784359250612f8483612dba565b82825260209485019490910190612f6f565b979650505050505050565b600080600060608486031215612fb657600080fd5b8335612fc181612dba565b92506020840135612fd181612dba565b929592945050506040919091013590565b60008067ffffffffffffffff841115612ffd57612ffd612ea1565b50601f8301601f191660200161301281612eb7565b91505082815283838301111561302757600080fd5b828260208301376000602084830101529392505050565b600080600080600080600060e0888a03121561305957600080fd5b873561306481612dba565b96506020880135955060408801359450606088013561308281612dba565b93506080880135925060a088013561309981612dba565b915060c088013567ffffffffffffffff8111156130b557600080fd5b8801601f81018a136130c657600080fd5b6130d58a823560208401612fe2565b91505092959891949750929550565b600080600080608085870312156130fa57600080fd5b843561310581612dba565b9350602085013561311581612dba565b93969395505050506040820135916060013590565b60008060008060008060c0878903121561314357600080fd5b863561314e81612dba565b95506020870135945060408701359350606087013561316c81612dba565b92506080870135915060a087013561318381612dba565b809150509295509295509295565b8015158114611e7257600080fd5b600080604083850312156131b257600080fd5b82356131bd81612dba565b915060208301356131cd81613191565b809150509250929050565b600080600080608085870312156131ee57600080fd5b84356131f981612dba565b9350602085013561320981612dba565b925060408501359150606085013567ffffffffffffffff81111561322c57600080fd5b8501601f8101871361323d57600080fd5b61324c87823560208401612fe2565b91505092959194509250565b6000806040838503121561326b57600080fd5b823561327681612dba565b915060208301356131cd81612dba565b602080825282518282018190526000918401906040840190835b818110156132be5783518352602093840193909201916001016132a0565b509095945050505050565b600060c082019050825182526020830151602083015260018060a01b0360408401511660408301526060830151606083015260018060a01b03608084015116608083015260a08301516003811061332257613322612e18565b8060a08401525092915050565b600181811c9082168061334357607f821691505b60208210810361336357634e487b7160e01b600052602260045260246000fd5b50919050565b634e487b7160e01b600052603260045260246000fd5b634e487b7160e01b600052601160045260246000fd5b80820281158282048414176107ba576107ba61337f565b808201808211156107ba576107ba61337f565b6000602082840312156133d157600080fd5b815161216681612dba565b60208082526010908201526f3737ba103232bb34b1b29037bbb732b960811b604082015260600190565b6000604082840312801561341957600080fd5b506040805190810167ffffffffffffffff8111828210171561343d5761343d612ea1565b604052825161344b81612dba565b81526020928301519281019290925250919050565b818103818111156107ba576107ba61337f565b60008261349057634e487b7160e01b600052601260045260246000fd5b500490565b601f821115610c8b57806000526020600020601f840160051c810160208510156134bc5750805b601f840160051c820191505b8181101561248557600081556001016134c8565b815167ffffffffffffffff8111156134f6576134f6612ea1565b61350a81613504845461332f565b84613495565b6020601f82116001811461353e57600083156135265750848201515b600019600385901b1c1916600184901b178455612485565b600084815260208120601f198516915b8281101561356e578785015182556020948501946001909201910161354e565b508482101561358c5786840151600019600387901b60f8161c191681555b50505050600190811b01905550565b6000600182016135ad576135ad61337f565b5060010190565b6001600160a01b0385811682528416602082015260408101839052608060608201819052600090612c1e90830184612d62565b6000602082840312156135f957600080fd5b815161216681612d0b565b634e487b7160e01b600052603160045260246000fd5b60006020828403121561362c57600080fd5b815161216681613191565b60008251613649818460208701612d3e565b919091019291505056fea2646970667358221220a3c838b23b12e330ce4ac7b96f427719055352e68172f8ecb9ba1a56c96c119864736f6c634300081a0033","linkReferences":{}},"methodIdentifiers":{"MAX_POINTS()":"25f87d23","NATIVE_TOKEN()":"31f7d964","PRODUCT_FACTORY()":"63ca2ffe","addRentCurrencies(address[])":"3e844b88","approve(address,uint256)":"095ea7b3","balanceOf(address)":"70a08231","delist(address)":"6b2cc75c","endLease(address)":"e05aa510","getAccessesByDevice(address)":"d55c1325","getApproved(uint256)":"081812fc","getDeviceBinding(address)":"7741139f","getDeviceByAccessId(uint256)":"d0ed7851","getListingInfo(address)":"f1908a04","getRentalInfo(address)":"1320a8cb","isAccessible(address,address)":"c1898c18","isApprovedForAll(address,address)":"e985e9c5","list(address,uint256,uint256,address,uint256,address,string)":"55e0812e","name()":"06fdde03","owner()":"8da5cb5b","ownerOf(uint256)":"6352211e","payRent(address,uint256)":"202e5e10","relist(address,uint256,uint256,address,uint256,address)":"7bc2c4bc","removeRentCurrencies(address[])":"1f162d20","renounceOwnership()":"715018a6","rent(address,address,uint256,uint256)":"622275f0","safeTransferFrom(address,address,uint256)":"42842e0e","safeTransferFrom(address,address,uint256,bytes)":"b88d4fde","setApprovalForAll(address,bool)":"a22cb465","setFeePoints(uint256)":"0d831203","setTreasury(address)":"f0f44260","supportedRentCurrencies(address)":"a451a0a1","supportsInterface(bytes4)":"01ffc9a7","symbol()":"95d89b41","tokenByIndex(uint256)":"4f6ccce7","tokenOfOwnerByIndex(address,uint256)":"2f745c59","tokenURI(uint256)":"c87b56dd","totalSupply()":"18160ddd","transferFrom(address,address,uint256)":"23b872dd","transferOwnership(address)":"f2fde38b","withdraw(address)":"51cff8d9"},"id":1}