{"abi":[{"type":"constructor","inputs":[{"name":"initialOwner","type":"address","internalType":"address"},{"name":"productFactory","type":"address","internalType":"address"},{"name":"name","type":"string","internalType":"string"},{"name":"symbol","type":"string","internalType":"string"},{"name":"rentCurrencies","type":"address[]","internalType":"address[]"},{"name":"treasury","type":"address","internalType":"address payable"},{"name":"feePoints","type":"uint256","internalType":"uint256"}],"stateMutability":"nonpayable"},{"type":"function","name":"MAX_POINTS","inputs":[],"outputs":[{"name":"","type":"uint256","internalType":"uint256"}],"stateMutability":"view"},{"type":"function","name":"NATIVE_TOKEN","inputs":[],"outputs":[{"name":"","type":"address","internalType":"address"}],"stateMutability":"view"},{"type":"function","name":"PRODUCT_FACTORY","inputs":[],"outputs":[{"name":"","type":"address","internalType":"contract IProductFactory"}],"stateMutability":"view"},{"type":"function","name":"addRentCurrencies","inputs":[{"name":"rentCurrencies","type":"address[]","internalType":"address[]"}],"outputs":[],"stateMutability":"nonpayable"},{"type":"function","name":"approve","inputs":[{"name":"to","type":"address","internalType":"address"},{"name":"tokenId","type":"uint256","internalType":"uint256"}],"outputs":[],"stateMutability":"nonpayable"},{"type":"function","name":"balanceOf","inputs":[{"name":"owner","type":"address","internalType":"address"}],"outputs":[{"name":"","type":"uint256","internalType":"uint256"}],"stateMutability":"view"},{"type":"function","name":"delist","inputs":[{"name":"device","type":"address","internalType":"address"}],"outputs":[],"stateMutability":"nonpayable"},{"type":"function","name":"endLease","inputs":[{"name":"device","type":"address","internalType":"address"}],"outputs":[],"stateMutability":"nonpayable"},{"type":"function","name":"getAccessesByDevice","inputs":[{"name":"device","type":"address","internalType":"address"}],"outputs":[{"name":"","type":"uint256[]","internalType":"uint256[]"}],"stateMutability":"view"},{"type":"function","name":"getApproved","inputs":[{"name":"tokenId","type":"uint256","internalType":"uint256"}],"outputs":[{"name":"","type":"address","internalType":"address"}],"stateMutability":"view"},{"type":"function","name":"getDeviceBinding","inputs":[{"name":"device","type":"address","internalType":"address"}],"outputs":[{"name":"product","type":"address","internalType":"address"},{"name":"tokenId","type":"uint256","internalType":"uint256"}],"stateMutability":"view"},{"type":"function","name":"getDeviceByAccessId","inputs":[{"name":"accessId","type":"uint256","internalType":"uint256"}],"outputs":[{"name":"","type":"address","internalType":"address"}],"stateMutability":"view"},{"type":"function","name":"getListingInfo","inputs":[{"name":"device","type":"address","internalType":"address"}],"outputs":[{"name":"","type":"tuple","internalType":"struct IMarketplace.ListingInfo","components":[{"name":"minRentalDays","type":"uint256","internalType":"uint256"},{"name":"maxRentalDays","type":"uint256","internalType":"uint256"},{"name":"rentCurrency","type":"address","internalType":"address"},{"name":"dailyRent","type":"uint256","internalType":"uint256"},{"name":"rentRecipient","type":"address","internalType":"address payable"},{"name":"status","type":"uint8","internalType":"enum IMarketplace.ListingStatus"}]}],"stateMutability":"view"},{"type":"function","name":"getRentalInfo","inputs":[{"name":"device","type":"address","internalType":"address"}],"outputs":[{"name":"","type":"tuple","internalType":"struct IMarketplace.RentalInfo","components":[{"name":"accessId","type":"uint256","internalType":"uint256"},{"name":"startTime","type":"uint256","internalType":"uint256"},{"name":"endTime","type":"uint256","internalType":"uint256"},{"name":"rentalDays","type":"uint256","internalType":"uint256"},{"name":"rentCurrency","type":"address","internalType":"address"},{"name":"dailyRent","type":"uint256","internalType":"uint256"},{"name":"totalPaidRent","type":"uint256","internalType":"uint256"},{"name":"status","type":"uint8","internalType":"enum IMarketplace.RentalStatus"}]}],"stateMutability":"view"},{"type":"function","name":"isAccessible","inputs":[{"name":"device","type":"address","internalType":"address"},{"name":"user","type":"address","internalType":"address"}],"outputs":[{"name":"","type":"bool","internalType":"bool"}],"stateMutability":"view"},{"type":"function","name":"isApprovedForAll","inputs":[{"name":"owner","type":"address","internalType":"address"},{"name":"operator","type":"address","internalType":"address"}],"outputs":[{"name":"","type":"bool","internalType":"bool"}],"stateMutability":"view"},{"type":"function","name":"list","inputs":[{"name":"device","type":"address","internalType":"address"},{"name":"minRentalDays","type":"uint256","internalType":"uint256"},{"name":"maxRentalDays","type":"uint256","internalType":"uint256"},{"name":"rentCurrency","type":"address","internalType":"address"},{"name":"dailyRent","type":"uint256","internalType":"uint256"},{"name":"rentRecipient","type":"address","internalType":"address"}],"outputs":[],"stateMutability":"nonpayable"},{"type":"function","name":"name","inputs":[],"outputs":[{"name":"","type":"string","internalType":"string"}],"stateMutability":"view"},{"type":"function","name":"owner","inputs":[],"outputs":[{"name":"","type":"address","internalType":"address"}],"stateMutability":"view"},{"type":"function","name":"ownerOf","inputs":[{"name":"tokenId","type":"uint256","internalType":"uint256"}],"outputs":[{"name":"","type":"address","internalType":"address"}],"stateMutability":"view"},{"type":"function","name":"payRent","inputs":[{"name":"device","type":"address","internalType":"address"},{"name":"rent_","type":"uint256","internalType":"uint256"}],"outputs":[],"stateMutability":"payable"},{"type":"function","name":"relist","inputs":[{"name":"device","type":"address","internalType":"address"},{"name":"minRentalDays","type":"uint256","internalType":"uint256"},{"name":"maxRentalDays","type":"uint256","internalType":"uint256"},{"name":"rentCurrency","type":"address","internalType":"address"},{"name":"dailyRent","type":"uint256","internalType":"uint256"},{"name":"rentRecipient","type":"address","internalType":"address"}],"outputs":[],"stateMutability":"nonpayable"},{"type":"function","name":"removeRentCurrencies","inputs":[{"name":"rentCurrencies","type":"address[]","internalType":"address[]"}],"outputs":[],"stateMutability":"nonpayable"},{"type":"function","name":"renounceOwnership","inputs":[],"outputs":[],"stateMutability":"nonpayable"},{"type":"function","name":"rent","inputs":[{"name":"device","type":"address","internalType":"address"},{"name":"tenant","type":"address","internalType":"address"},{"name":"rentalDays","type":"uint256","internalType":"uint256"},{"name":"prepaidRent","type":"uint256","internalType":"uint256"},{"name":"accessURI","type":"string","internalType":"string"}],"outputs":[],"stateMutability":"payable"},{"type":"function","name":"safeTransferFrom","inputs":[{"name":"from","type":"address","internalType":"address"},{"name":"to","type":"address","internalType":"address"},{"name":"tokenId","type":"uint256","internalType":"uint256"}],"outputs":[],"stateMutability":"nonpayable"},{"type":"function","name":"safeTransferFrom","inputs":[{"name":"from","type":"address","internalType":"address"},{"name":"to","type":"address","internalType":"address"},{"name":"tokenId","type":"uint256","internalType":"uint256"},{"name":"data","type":"bytes","internalType":"bytes"}],"outputs":[],"stateMutability":"nonpayable"},{"type":"function","name":"setApprovalForAll","inputs":[{"name":"operator","type":"address","internalType":"address"},{"name":"approved","type":"bool","internalType":"bool"}],"outputs":[],"stateMutability":"nonpayable"},{"type":"function","name":"setFeePoints","inputs":[{"name":"feePoints","type":"uint256","internalType":"uint256"}],"outputs":[],"stateMutability":"nonpayable"},{"type":"function","name":"setTreasury","inputs":[{"name":"treasury","type":"address","internalType":"address payable"}],"outputs":[],"stateMutability":"nonpayable"},{"type":"function","name":"supportedRentCurrencies","inputs":[{"name":"","type":"address","internalType":"address"}],"outputs":[{"name":"","type":"bool","internalType":"bool"}],"stateMutability":"view"},{"type":"function","name":"supportsInterface","inputs":[{"name":"interfaceId","type":"bytes4","internalType":"bytes4"}],"outputs":[{"name":"","type":"bool","internalType":"bool"}],"stateMutability":"view"},{"type":"function","name":"symbol","inputs":[],"outputs":[{"name":"","type":"string","internalType":"string"}],"stateMutability":"view"},{"type":"function","name":"tokenByIndex","inputs":[{"name":"index","type":"uint256","internalType":"uint256"}],"outputs":[{"name":"","type":"uint256","internalType":"uint256"}],"stateMutability":"view"},{"type":"function","name":"tokenOfOwnerByIndex","inputs":[{"name":"owner","type":"address","internalType":"address"},{"name":"index","type":"uint256","internalType":"uint256"}],"outputs":[{"name":"","type":"uint256","internalType":"uint256"}],"stateMutability":"view"},{"type":"function","name":"tokenURI","inputs":[{"name":"accessId","type":"uint256","internalType":"uint256"}],"outputs":[{"name":"","type":"string","internalType":"string"}],"stateMutability":"view"},{"type":"function","name":"totalSupply","inputs":[],"outputs":[{"name":"","type":"uint256","internalType":"uint256"}],"stateMutability":"view"},{"type":"function","name":"transferFrom","inputs":[{"name":"from","type":"address","internalType":"address"},{"name":"to","type":"address","internalType":"address"},{"name":"tokenId","type":"uint256","internalType":"uint256"}],"outputs":[],"stateMutability":"nonpayable"},{"type":"function","name":"transferOwnership","inputs":[{"name":"newOwner","type":"address","internalType":"address"}],"outputs":[],"stateMutability":"nonpayable"},{"type":"function","name":"withdraw","inputs":[{"name":"device","type":"address","internalType":"address"}],"outputs":[],"stateMutability":"nonpayable"},{"type":"event","name":"Approval","inputs":[{"name":"owner","type":"address","indexed":true,"internalType":"address"},{"name":"approved","type":"address","indexed":true,"internalType":"address"},{"name":"tokenId","type":"uint256","indexed":true,"internalType":"uint256"}],"anonymous":false},{"type":"event","name":"ApprovalForAll","inputs":[{"name":"owner","type":"address","indexed":true,"internalType":"address"},{"name":"operator","type":"address","indexed":true,"internalType":"address"},{"name":"approved","type":"bool","indexed":false,"internalType":"bool"}],"anonymous":false},{"type":"event","name":"Delist","inputs":[{"name":"owner","type":"address","indexed":true,"internalType":"address"},{"name":"device","type":"address","indexed":true,"internalType":"address"}],"anonymous":false},{"type":"event","name":"EndLease","inputs":[{"name":"device","type":"address","indexed":true,"internalType":"address"},{"name":"operator","type":"address","indexed":false,"internalType":"address"}],"anonymous":false},{"type":"event","name":"List","inputs":[{"name":"owner","type":"address","indexed":true,"internalType":"address"},{"name":"device","type":"address","indexed":true,"internalType":"address"},{"name":"minRentalDays","type":"uint256","indexed":false,"internalType":"uint256"},{"name":"maxRentalDays","type":"uint256","indexed":false,"internalType":"uint256"},{"name":"rentCurrency","type":"address","indexed":false,"internalType":"address"},{"name":"dailyRent","type":"uint256","indexed":false,"internalType":"uint256"},{"name":"rentRecipient","type":"address","indexed":false,"internalType":"address"}],"anonymous":false},{"type":"event","name":"OwnershipTransferred","inputs":[{"name":"previousOwner","type":"address","indexed":true,"internalType":"address"},{"name":"newOwner","type":"address","indexed":true,"internalType":"address"}],"anonymous":false},{"type":"event","name":"PayRent","inputs":[{"name":"device","type":"address","indexed":true,"internalType":"address"},{"name":"rent","type":"uint256","indexed":false,"internalType":"uint256"}],"anonymous":false},{"type":"event","name":"Relist","inputs":[{"name":"owner","type":"address","indexed":true,"internalType":"address"},{"name":"device","type":"address","indexed":true,"internalType":"address"},{"name":"minRentalDays","type":"uint256","indexed":false,"internalType":"uint256"},{"name":"maxRentalDays","type":"uint256","indexed":false,"internalType":"uint256"},{"name":"rentCurrency","type":"address","indexed":false,"internalType":"address"},{"name":"dailyRent","type":"uint256","indexed":false,"internalType":"uint256"},{"name":"rentRecipient","type":"address","indexed":false,"internalType":"address"}],"anonymous":false},{"type":"event","name":"Rent","inputs":[{"name":"device","type":"address","indexed":true,"internalType":"address"},{"name":"accessId","type":"uint256","indexed":true,"internalType":"uint256"},{"name":"tenant","type":"address","indexed":true,"internalType":"address"},{"name":"startTime","type":"uint256","indexed":false,"internalType":"uint256"},{"name":"endTime","type":"uint256","indexed":false,"internalType":"uint256"},{"name":"rentalDays","type":"uint256","indexed":false,"internalType":"uint256"},{"name":"prepaidRent","type":"uint256","indexed":false,"internalType":"uint256"}],"anonymous":false},{"type":"event","name":"Transfer","inputs":[{"name":"from","type":"address","indexed":true,"internalType":"address"},{"name":"to","type":"address","indexed":true,"internalType":"address"},{"name":"tokenId","type":"uint256","indexed":true,"internalType":"uint256"}],"anonymous":false},{"type":"event","name":"Withdraw","inputs":[{"name":"owner","type":"address","indexed":true,"internalType":"address"},{"name":"device","type":"address","indexed":true,"internalType":"address"}],"anonymous":false},{"type":"error","name":"AccessAlreadyGranted","inputs":[]},{"type":"error","name":"AddressEmptyCode","inputs":[{"name":"target","type":"address","internalType":"address"}]},{"type":"error","name":"AddressInsufficientBalance","inputs":[{"name":"account","type":"address","internalType":"address"}]},{"type":"error","name":"ERC721EnumerableForbiddenBatchMint","inputs":[]},{"type":"error","name":"ERC721IncorrectOwner","inputs":[{"name":"sender","type":"address","internalType":"address"},{"name":"tokenId","type":"uint256","internalType":"uint256"},{"name":"owner","type":"address","internalType":"address"}]},{"type":"error","name":"ERC721InsufficientApproval","inputs":[{"name":"operator","type":"address","internalType":"address"},{"name":"tokenId","type":"uint256","internalType":"uint256"}]},{"type":"error","name":"ERC721InvalidApprover","inputs":[{"name":"approver","type":"address","internalType":"address"}]},{"type":"error","name":"ERC721InvalidOperator","inputs":[{"name":"operator","type":"address","internalType":"address"}]},{"type":"error","name":"ERC721InvalidOwner","inputs":[{"name":"owner","type":"address","internalType":"address"}]},{"type":"error","name":"ERC721InvalidReceiver","inputs":[{"name":"receiver","type":"address","internalType":"address"}]},{"type":"error","name":"ERC721InvalidSender","inputs":[{"name":"sender","type":"address","internalType":"address"}]},{"type":"error","name":"ERC721NonexistentToken","inputs":[{"name":"tokenId","type":"uint256","internalType":"uint256"}]},{"type":"error","name":"ERC721OutOfBoundsIndex","inputs":[{"name":"owner","type":"address","internalType":"address"},{"name":"index","type":"uint256","internalType":"uint256"}]},{"type":"error","name":"FailedInnerCall","inputs":[]},{"type":"error","name":"NotProductDeviceOwner","inputs":[]},{"type":"error","name":"OwnableInvalidOwner","inputs":[{"name":"owner","type":"address","internalType":"address"}]},{"type":"error","name":"OwnableUnauthorizedAccount","inputs":[{"name":"account","type":"address","internalType":"address"}]},{"type":"error","name":"SafeERC20FailedOperation","inputs":[{"name":"token","type":"address","internalType":"address"}]}],"bytecode":{"object":"0x608060405234801561001057600080fd5b50604051613ba3380380613ba383398101604081905261002f91610302565b86868686818160006100418382610465565b50600161004e8282610465565b5050600a80546001600160a01b0319166001600160a01b0395861617905550506001600b5550811661009a57604051631e4fbdf760e01b81526000600482015260240160405180910390fd5b6100a381610132565b5060005b8351811015610102576001601260008684815181106100c8576100c8610523565b6020908102919091018101516001600160a01b03168252810191909152604001600020805460ff19169115159190911790556001016100a7565b50601080546001600160a01b0319166001600160a01b039390931692909217909155601155506105399350505050565b600f80546001600160a01b038381166001600160a01b0319831681179093556040519116919082907f8be0079c531659141344cd1fd0a4f28419497f9722a3daafe3b4186f6b6457e090600090a35050565b6001600160a01b038116811461019957600080fd5b50565b80516101a781610184565b919050565b634e487b7160e01b600052604160045260246000fd5b604051601f8201601f191681016001600160401b03811182821017156101ea576101ea6101ac565b604052919050565b600082601f83011261020357600080fd5b81516001600160401b0381111561021c5761021c6101ac565b61022f601f8201601f19166020016101c2565b81815284602083860101111561024457600080fd5b60005b8281101561026357602081860181015183830182015201610247565b506000918101602001919091529392505050565b600082601f83011261028857600080fd5b81516001600160401b038111156102a1576102a16101ac565b8060051b6102b1602082016101c2565b918252602081850181019290810190868411156102cd57600080fd5b6020860192505b838310156102f85782516102e781610184565b8252602092830192909101906102d4565b9695505050505050565b600080600080600080600060e0888a03121561031d57600080fd5b875161032881610184565b96506103366020890161019c565b60408901519096506001600160401b0381111561035257600080fd5b61035e8a828b016101f2565b60608a015190965090506001600160401b0381111561037c57600080fd5b6103888a828b016101f2565b60808a015190955090506001600160401b038111156103a657600080fd5b6103b28a828b01610277565b9350506103c160a0890161019c565b9150600060c089015190508091505092959891949750929550565b600181811c908216806103f057607f821691505b60208210810361041057634e487b7160e01b600052602260045260246000fd5b50919050565b601f82111561046057806000526020600020601f840160051c8101602085101561043d5750805b601f840160051c820191505b8181101561045d5760008155600101610449565b50505b505050565b81516001600160401b0381111561047e5761047e6101ac565b6104928161048c84546103dc565b84610416565b6020601f8211600181146104c657600083156104ae5750848201515b600019600385901b1c1916600184901b17845561045d565b600084815260208120601f198516915b828110156104f657878501518255602094850194600190920191016104d6565b50848210156105145786840151600019600387901b60f8161c191681555b50505050600190811b01905550565b634e487b7160e01b600052603260045260246000fd5b61365b806105486000396000f3fe60806040526004361061023b5760003560e01c80636b2cc75c1161012e578063b88d4fde116100ab578063e05aa5101161006f578063e05aa510146106e8578063e985e9c514610708578063f0f4426014610728578063f1908a0414610748578063f2fde38b1461077557600080fd5b8063b88d4fde14610625578063c1898c1814610645578063c87b56dd14610665578063d0ed785114610685578063d55c1325146106bb57600080fd5b80638da5cb5b116100f25780638da5cb5b1461058257806395d89b41146105a0578063a22cb465146105b5578063a451a0a1146105d5578063aa242a601461060557600080fd5b80636b2cc75c146104ce57806370a08231146104ee578063715018a61461050e5780637741139f146105235780637bc2c4bc1461056257600080fd5b806325f87d23116101bc57806342842e0e1161018057806342842e0e1461042e5780634f6ccce71461044e57806351cff8d91461046e5780636352211e1461048e57806363ca2ffe146104ae57600080fd5b806325f87d23146103b05780632f745c59146103c657806331f7d964146103e65780633271bec0146103fb5780633e844b881461040e57600080fd5b80631320a8cb116102035780631320a8cb1461031157806318160ddd1461033e5780631f162d201461035d578063202e5e101461037d57806323b872dd1461039057600080fd5b806301ffc9a71461024057806306fdde0314610275578063081812fc14610297578063095ea7b3146102cf5780630d831203146102f1575b600080fd5b34801561024c57600080fd5b5061026061025b366004612d55565b610795565b60405190151581526020015b60405180910390f35b34801561028157600080fd5b5061028a6107c0565b60405161026c9190612dc2565b3480156102a357600080fd5b506102b76102b2366004612dd5565b610852565b6040516001600160a01b03909116815260200161026c565b3480156102db57600080fd5b506102ef6102ea366004612e03565b61087b565b005b3480156102fd57600080fd5b506102ef61030c366004612dd5565b61088a565b34801561031d57600080fd5b5061033161032c366004612e2f565b610897565b60405161026c9190612e62565b34801561034a57600080fd5b506008545b60405190815260200161026c565b34801561036957600080fd5b506102ef610378366004612f1c565b610949565b6102ef61038b366004612e03565b6109af565b34801561039c57600080fd5b506102ef6103ab366004612fd5565b610b1a565b3480156103bc57600080fd5b5061034f61271081565b3480156103d257600080fd5b5061034f6103e1366004612e03565b610ba5565b3480156103f257600080fd5b506102b7600081565b6102ef610409366004613072565b610c0a565b34801561041a57600080fd5b506102ef610429366004612f1c565b610fc5565b34801561043a57600080fd5b506102ef610449366004612fd5565b61102b565b34801561045a57600080fd5b5061034f610469366004612dd5565b61104b565b34801561047a57600080fd5b506102ef610489366004612e2f565b6110a4565b34801561049a57600080fd5b506102b76104a9366004612dd5565b611212565b3480156104ba57600080fd5b50600a546102b7906001600160a01b031681565b3480156104da57600080fd5b506102ef6104e9366004612e2f565b61121d565b3480156104fa57600080fd5b5061034f610509366004612e2f565b611320565b34801561051a57600080fd5b506102ef611368565b34801561052f57600080fd5b5061054361053e366004612e2f565b61137c565b604080516001600160a01b03909316835260208301919091520161026c565b34801561056e57600080fd5b506102ef61057d3660046130fc565b611403565b34801561058e57600080fd5b50600f546001600160a01b03166102b7565b3480156105ac57600080fd5b5061028a611687565b3480156105c157600080fd5b506102ef6105d0366004613171565b611696565b3480156105e157600080fd5b506102606105f0366004612e2f565b60126020526000908152604090205460ff1681565b34801561061157600080fd5b506102ef6106203660046130fc565b6116a1565b34801561063157600080fd5b506102ef6106403660046131aa565b611a2b565b34801561065157600080fd5b5061026061066036600461322a565b611a42565b34801561067157600080fd5b5061028a610680366004612dd5565b611af9565b34801561069157600080fd5b506102b76106a0366004612dd5565b6000908152600d60205260409020546001600160a01b031690565b3480156106c757600080fd5b506106db6106d6366004612e2f565b611b9b565b60405161026c9190613258565b3480156106f457600080fd5b506102ef610703366004612e2f565b611c06565b34801561071457600080fd5b5061026061072336600461322a565b611d02565b34801561073457600080fd5b506102ef610743366004612e2f565b611d30565b34801561075457600080fd5b50610768610763366004612e2f565b611d5a565b60405161026c919061329b565b34801561078157600080fd5b506102ef610790366004612e2f565b611e1f565b60006001600160e01b0319821663b379f4f360e01b14806107ba57506107ba82611e5d565b92915050565b6060600080546107cf90613301565b80601f01602080910402602001604051908101604052809291908181526020018280546107fb90613301565b80156108485780601f1061081d57610100808354040283529160200191610848565b820191906000526020600020905b81548152906001019060200180831161082b57829003601f168201915b5050505050905090565b600061085d82611e82565b506000828152600460205260409020546001600160a01b03166107ba565b610886828233611ebb565b5050565b610892611ec8565b601155565b61089f612c93565b6001600160a01b0380831660009081526014602090815260409182902082516101008101845281548152600180830154938201939093526002820154938101939093526003810154606084015260048101549093166080830152600583015460a0830152600683015460c0830152600783015491929160e084019160ff9091169081111561092f5761092f612e4c565b600181111561094057610940612e4c565b90525092915050565b610951611ec8565b60005b8151811015610886576000601260008484815181106109755761097561333b565b6020908102919091018101516001600160a01b03168252810191909152604001600020805460ff1916911515919091179055600101610954565b6001600160a01b038281166000908152601360209081526040808320815160c081018352815481526001820154938101939093526002808201548616928401929092526003810154606084015260048101549485166080840152929391929160a0840191600160a01b90910460ff1690811115610a2e57610a2e612e4c565b6002811115610a3f57610a3f612e4c565b9052506001600160a01b0384166000908152601460205260409020600581015460038201549293509091610a739190613367565b838260060154610a83919061337e565b1115610ac65760405162461bcd60e51b815260206004820152600d60248201526c1d1bdbc81b5d58da081c995b9d609a1b60448201526064015b60405180910390fd5b610ad1828285611ef5565b836001600160a01b03167fb2f67070fde459a24bdcc585085a388cb1d0b2297027e1707689e3516304da5984604051610b0c91815260200190565b60405180910390a250505050565b6001600160a01b038216610b4457604051633250574960e11b815260006004820152602401610abd565b6000610b5183833361207e565b9050836001600160a01b0316816001600160a01b031614610b9f576040516364283d7b60e01b81526001600160a01b0380861660048301526024820184905282166044820152606401610abd565b50505050565b6000610bb083611320565b8210610be15760405163295f44f760e21b81526001600160a01b038416600482015260248101839052604401610abd565b506001600160a01b03919091166000908152600660209081526040808320938352929052205490565b6001600160a01b03851660009081526014602052604081206007015460ff166001811115610c3a57610c3a612e4c565b14610c795760405162461bcd60e51b815260206004820152600f60248201526e195e1a5cdd1a5b99c81c995b9d185b608a1b6044820152606401610abd565b6001600160a01b038581166000908152601360209081526040808320815160c081018352815481526001820154938101939093526002808201548616928401929092526003810154606084015260048101549485166080840152929391929160a0840191600160a01b90910460ff1690811115610cf857610cf8612e4c565b6002811115610d0957610d09612e4c565b905250905060018160a001516002811115610d2657610d26612e4c565b14610d615760405162461bcd60e51b815260206004820152600b60248201526a6e6f74206c697374696e6760a81b6044820152606401610abd565b80518410801590610d76575080602001518411155b610db85760405162461bcd60e51b8152602060048201526013602482015272696e76616c69642072656e74616c206461797360681b6044820152606401610abd565b60608101518151610dc99190613367565b831015610e185760405162461bcd60e51b815260206004820152601960248201527f696e73756666696369656e7420707265706169642072656e74000000000000006044820152606401610abd565b6000610e25868885612155565b9050426000610e378762015180613367565b610e41904261337e565b905060405180610100016040528084815260200183815260200182815260200188815260200185604001516001600160a01b031681526020018560600151815260200160008152602001600180811115610e9d57610e9d612e4c565b90526001600160a01b038a811660009081526014602090815260409182902084518155908401516001808301919091559184015160028201556060840151600382015560808401516004820180546001600160a01b031916919094161790925560a0830151600583015560c0830151600683015560e08301516007830180549192909160ff1916908381811115610f3657610f36612e4c565b021790555050506001600160a01b0389166000908152601460205260409020610f6190859088611ef5565b6040805183815260208101839052908101889052606081018790526001600160a01b03808a169185918c16907f4db5be5275bd4130429c3fee6d81dc1cc77cb1b76c7206474dbac3ace43c78b59060800160405180910390a4505050505050505050565b610fcd611ec8565b60005b815181101561088657600160126000848481518110610ff157610ff161333b565b6020908102919091018101516001600160a01b03168252810191909152604001600020805460ff1916911515919091179055600101610fd0565b61104683838360405180602001604052806000815250611a2b565b505050565b600061105660085490565b821061107f5760405163295f44f760e21b81526000600482015260248101839052604401610abd565b600882815481106110925761109261333b565b90600052602060002001549050919050565b806000806110b18361137c565b6040516331a9108f60e11b815260048101829052919350915033906001600160a01b03841690636352211e90602401602060405180830381865afa1580156110fd573d6000803e3d6000fd5b505050506040513d601f19601f820116820180604052508101906111219190613391565b6001600160a01b0316146111475760405162461bcd60e51b8152600401610abd906133ae565b6001600160a01b0384166000908152601360209081526040808320601490925282209091600782015460ff16600181111561118457611184612e4c565b146111c55760405162461bcd60e51b815260206004820152601160248201527019195d9a58d9481a185cc81d195b985b9d607a1b6044820152606401610abd565b60048201805460ff60a01b191690556040516001600160a01b0387169033907f34d58c18c6c1df2c698ccac556acea92941ca7b99d2fccf9e3ac1852d0dec36f90600090a3505050505050565b60006107ba82611e82565b8060008061122a8361137c565b6040516331a9108f60e11b815260048101829052919350915033906001600160a01b03841690636352211e90602401602060405180830381865afa158015611276573d6000803e3d6000fd5b505050506040513d601f19601f8201168201806040525081019061129a9190613391565b6001600160a01b0316146112c05760405162461bcd60e51b8152600401610abd906133ae565b6001600160a01b03841660008181526013602052604080822060048101805460ff60a01b1916600160a11b179055905190929133917fcfdcdd2609b1db5a39336831b42e0eeab00e058f0bd702d4d2de4e7e2a3f78229190a35050505050565b60006001600160a01b03821661134c576040516322718ad960e21b815260006004820152602401610abd565b506001600160a01b031660009081526003602052604090205490565b611370611ec8565b61137a6000612249565b565b600a54604051637741139f60e01b81526001600160a01b0383811660048301526000928392839290911690637741139f906024016040805180830381865afa1580156113cc573d6000803e3d6000fd5b505050506040513d601f19601f820116820180604052508101906113f091906133d8565b8051602090910151909590945092505050565b856000806114108361137c565b6040516331a9108f60e11b815260048101829052919350915033906001600160a01b03841690636352211e90602401602060405180830381865afa15801561145c573d6000803e3d6000fd5b505050506040513d601f19601f820116820180604052508101906114809190613391565b6001600160a01b0316146114a65760405162461bcd60e51b8152600401610abd906133ae565b6001600160a01b03891660009081526013602052604090208861150b5760405162461bcd60e51b815260206004820152601b60248201527f696e76616c6964206d696e696d756d2072656e74616c206461797300000000006044820152606401610abd565b8888101561155b5760405162461bcd60e51b815260206004820152601b60248201527f696e76616c6964206d6178696d756d2072656e74616c206461797300000000006044820152606401610abd565b6001600160a01b038716158061158957506001600160a01b03871660009081526012602052604090205460ff165b6115d15760405162461bcd60e51b8152602060048201526019602482015278756e737570706f727465642072656e742063757272656e637960381b6044820152606401610abd565b888155600181018890556002810180546001600160a01b0319166001600160a01b0389811691821790925560038301889055600483018054600160a01b6001600160a81b031990911689851690811791909117909155604080518d8152602081018d905290810192909252606082018990526080820152908b169033907fdd02a82702deb921fe48b91829443f22212a10030ee5fc9c8d97d8e36a154d379060a00160405180910390a350505050505050505050565b6060600180546107cf90613301565b61088633838361229b565b856000806116ae8361137c565b6040516331a9108f60e11b815260048101829052919350915033906001600160a01b03841690636352211e90602401602060405180830381865afa1580156116fa573d6000803e3d6000fd5b505050506040513d601f19601f8201168201806040525081019061171e9190613391565b6001600160a01b0316146117445760405162461bcd60e51b8152600401610abd906133ae565b60006001600160a01b038a16600090815260136020526040902060040154600160a01b900460ff16600281111561177d5761177d612e4c565b146117c15760405162461bcd60e51b81526020600482015260146024820152731d1bdad95b88185b1c9958591e481b1a5cdd195960621b6044820152606401610abd565b600088116118115760405162461bcd60e51b815260206004820152601b60248201527f696e76616c6964206d696e696d756d2072656e74616c206461797300000000006044820152606401610abd565b878710156118615760405162461bcd60e51b815260206004820152601b60248201527f696e76616c6964206d6178696d756d2072656e74616c206461797300000000006044820152606401610abd565b6001600160a01b038616158061188f57506001600160a01b03861660009081526012602052604090205460ff165b6118d75760405162461bcd60e51b8152602060048201526019602482015278756e737570706f727465642072656e742063757272656e637960381b6044820152606401610abd565b6040518060c00160405280898152602001888152602001876001600160a01b03168152602001868152602001856001600160a01b031681526020016001600281111561192557611925612e4c565b90526001600160a01b03808b166000908152601360209081526040918290208451815590840151600182015590830151600280830180549285166001600160a01b0319938416179055606085015160038401556080850151600484018054919095169281168317855560a08601519394926001600160a81b03199091161790600160a01b9084908111156119bb576119bb612e4c565b021790555050604080518a8152602081018a90526001600160a01b03898116828401526060820189905287811660808301529151918c16925033917f4cadc0254e0973398f06d362f5bff507638f068c2b61f4239d78d660755e7d619181900360a00190a3505050505050505050565b611a36848484610b1a565b610b9f8484848461233a565b6000805b6001600160a01b0384166000908152600c6020526040902054811015611aef57826001600160a01b0316611acf600c6000876001600160a01b03166001600160a01b031681526020019081526020016000208381548110611aa957611aa961333b565b90600052602060002001546000908152600260205260409020546001600160a01b031690565b6001600160a01b031603611ae75760019150506107ba565b600101611a46565b5060009392505050565b6000818152600e60205260409020805460609190611b1690613301565b80601f0160208091040260200160405190810160405280929190818152602001828054611b4290613301565b8015611b8f5780601f10611b6457610100808354040283529160200191611b8f565b820191906000526020600020905b815481529060010190602001808311611b7257829003601f168201915b50505050509050919050565b6001600160a01b0381166000908152600c6020908152604091829020805483518184028101840190945280845260609392830182828015611b8f57602002820191906000526020600020905b815481526020019060010190808311611be75750505050509050919050565b6001600160a01b038116600090815260146020526040812060058101546001820154919291620151809190611c3b9042613432565b611c459190613367565b611c4f9190613445565b90504282600201541080611c665750808260060154105b611ca55760405162461bcd60e51b815260206004820152601060248201526f63616e6e6f7420656e64206c6561736560801b6044820152606401610abd565b611cb3838360000154612463565b60078201805460ff191690556040513381526001600160a01b038416907f7207be407e6105cf740697ec3b730c2ce7688d7e8f974698f71445b63fcbe44c9060200160405180910390a2505050565b6001600160a01b03918216600090815260056020908152604080832093909416825291909152205460ff1690565b611d38611ec8565b601080546001600160a01b0319166001600160a01b0392909216919091179055565b611d906040805160c08101825260008082526020820181905291810182905260608101829052608081018290529060a082015290565b6001600160a01b03828116600090815260136020908152604091829020825160c0810184528154815260018201549281019290925260028082015485169383019390935260038101546060830152600481015493841660808301529092909160a0840191600160a01b900460ff1690811115611e0e57611e0e612e4c565b600281111561094057610940612e4c565b611e27611ec8565b6001600160a01b038116611e5157604051631e4fbdf760e01b815260006004820152602401610abd565b611e5a81612249565b50565b60006001600160e01b0319821663780e9d6360e01b14806107ba57506107ba82612560565b6000818152600260205260408120546001600160a01b0316806107ba57604051637e27328960e01b815260048101849052602401610abd565b61104683838360016125b0565b600f546001600160a01b0316331461137a5760405163118cdaa760e01b8152336004820152602401610abd565b601154600090819015801590611f335761271060115485611f169190613367565b611f209190613445565b9250611f2c8385613432565b9150611f37565b8391505b60048501546001600160a01b031661201457833414611f8f5760405162461bcd60e51b81526020600482015260146024820152731a5b9d985b1a59081c1c995c185a59081c995b9d60621b6044820152606401610abd565b85608001516001600160a01b03166108fc839081150290604051600060405180830381858888f19350505050158015611fcc573d6000803e3d6000fd5b50801561200f576010546040516001600160a01b039091169084156108fc029085906000818181858888f1935050505015801561200d573d6000803e3d6000fd5b505b61205d565b60808601516004860154612036916001600160a01b03909116903390856126b6565b801561205d57601054600486015461205d916001600160a01b0391821691339116866126b6565b83856006016000828254612071919061337e565b9091555050505050505050565b60008061208c858585612710565b90506001600160a01b0381166120e9576120e484600880546000838152600960205260408120829055600182018355919091527ff3f7a9fe364faab93b216da50a3214154f22a0a2b415b23a84c8169e8b636ee30155565b61210c565b846001600160a01b0316816001600160a01b03161461210c5761210c8185612809565b6001600160a01b038516612128576121238461289a565b61214b565b846001600160a01b0316816001600160a01b03161461214b5761214b8585612949565b90505b9392505050565b60008061216185611320565b905060005b818110156121c557846001600160a01b0316600d60006121858461104b565b81526020810191909152604001600020546001600160a01b0316036121bd576040516342beec5560e11b815260040160405180910390fd5b600101612166565b50600b8054600091826121d783613467565b9190505590506121e78682612999565b6001600160a01b0385166000818152600c60209081526040808320805460018101825590845282842001859055848352600d825280832080546001600160a01b031916909417909355600e90522061223f85826134c7565b5095945050505050565b600f80546001600160a01b038381166001600160a01b0319831681179093556040519116919082907f8be0079c531659141344cd1fd0a4f28419497f9722a3daafe3b4186f6b6457e090600090a35050565b6001600160a01b0382166122cd57604051630b61174360e31b81526001600160a01b0383166004820152602401610abd565b6001600160a01b03838116600081815260056020908152604080832094871680845294825291829020805460ff191686151590811790915591519182527f17307eab39ab6107e8899845ad3d59bd9653f200f220920489ca2b5937696c31910160405180910390a3505050565b6001600160a01b0383163b15610b9f57604051630a85bd0160e11b81526001600160a01b0384169063150b7a029061237c903390889087908790600401613586565b6020604051808303816000875af19250505080156123b7575060408051601f3d908101601f191682019092526123b4918101906135b9565b60015b612420573d8080156123e5576040519150601f19603f3d011682016040523d82523d6000602084013e6123ea565b606091505b50805160000361241857604051633250574960e11b81526001600160a01b0385166004820152602401610abd565b805181602001fd5b6001600160e01b03198116630a85bd0160e11b1461245c57604051633250574960e11b81526001600160a01b0385166004820152602401610abd565b5050505050565b61246c816129fe565b6001600160a01b0382166000908152600c60205260408120905b815481101561253057828282815481106124a2576124a261333b565b90600052602060002001540361252857815482906124c290600190613432565b815481106124d2576124d261333b565b90600052602060002001548282815481106124ef576124ef61333b565b90600052602060002001819055508180548061250d5761250d6135d6565b60019003818190600052602060002001600090559055612530565b600101612486565b506000828152600d6020908152604080832080546001600160a01b0319169055600e909152812061104691612cf1565b60006001600160e01b031982166380ac58cd60e01b148061259157506001600160e01b03198216635b5e139f60e01b145b806107ba57506301ffc9a760e01b6001600160e01b03198316146107ba565b80806125c457506001600160a01b03821615155b156126865760006125d484611e82565b90506001600160a01b038316158015906126005750826001600160a01b0316816001600160a01b031614155b801561261357506126118184611d02565b155b1561263c5760405163a9fbf51f60e01b81526001600160a01b0384166004820152602401610abd565b81156126845783856001600160a01b0316826001600160a01b03167f8c5be1e5ebec7d5bd14f71427d1e84f3dd0314c0f7b2291e5b200ac8c7c3b92560405160405180910390a45b505b5050600090815260046020526040902080546001600160a01b0319166001600160a01b0392909216919091179055565b604080516001600160a01b0385811660248301528416604482015260648082018490528251808303909101815260849091019091526020810180516001600160e01b03166323b872dd60e01b179052610b9f908590612a39565b6000828152600260205260408120546001600160a01b039081169083161561273d5761273d818486612a9c565b6001600160a01b0381161561277b5761275a6000856000806125b0565b6001600160a01b038116600090815260036020526040902080546000190190555b6001600160a01b038516156127aa576001600160a01b0385166000908152600360205260409020805460010190555b60008481526002602052604080822080546001600160a01b0319166001600160a01b0389811691821790925591518793918516917fddf252ad1be2c89b69c2b068fc378daa952ba7f163c4a11628f55a4df523b3ef91a4949350505050565b600061281483611320565b600083815260076020526040902054909150808214612867576001600160a01b03841660009081526006602090815260408083208584528252808320548484528184208190558352600790915290208190555b5060009182526007602090815260408084208490556001600160a01b039094168352600681528383209183525290812055565b6008546000906128ac90600190613432565b600083815260096020526040812054600880549394509092849081106128d4576128d461333b565b9060005260206000200154905080600883815481106128f5576128f561333b565b600091825260208083209091019290925582815260099091526040808220849055858252812055600880548061292d5761292d6135d6565b6001900381819060005260206000200160009055905550505050565b6000600161295684611320565b6129609190613432565b6001600160a01b039093166000908152600660209081526040808320868452825280832085905593825260079052919091209190915550565b6001600160a01b0382166129c357604051633250574960e11b815260006004820152602401610abd565b60006129d18383600061207e565b90506001600160a01b03811615611046576040516339e3563760e11b815260006004820152602401610abd565b6000612a0d600083600061207e565b90506001600160a01b03811661088657604051637e27328960e01b815260048101839052602401610abd565b6000612a4e6001600160a01b03841683612b00565b90508051600014158015612a73575080806020019051810190612a7191906135ec565b155b1561104657604051635274afe760e01b81526001600160a01b0384166004820152602401610abd565b612aa7838383612b0e565b611046576001600160a01b038316612ad557604051637e27328960e01b815260048101829052602401610abd565b60405163177e802f60e01b81526001600160a01b038316600482015260248101829052604401610abd565b606061214e83836000612b71565b60006001600160a01b0383161580159061214b5750826001600160a01b0316846001600160a01b03161480612b485750612b488484611d02565b8061214b5750506000908152600460205260409020546001600160a01b03908116911614919050565b606081471015612b965760405163cd78605960e01b8152306004820152602401610abd565b600080856001600160a01b03168486604051612bb29190613609565b60006040518083038185875af1925050503d8060008114612bef576040519150601f19603f3d011682016040523d82523d6000602084013e612bf4565b606091505b5091509150612c04868383612c0e565b9695505050505050565b606082612c2357612c1e82612c6a565b61214e565b8151158015612c3a57506001600160a01b0384163b155b15612c6357604051639996b31560e01b81526001600160a01b0385166004820152602401610abd565b508061214e565b805115612c7a5780518082602001fd5b604051630a12f52160e11b815260040160405180910390fd5b6040518061010001604052806000815260200160008152602001600081526020016000815260200160006001600160a01b03168152602001600081526020016000815260200160006001811115612cec57612cec612e4c565b905290565b508054612cfd90613301565b6000825580601f10612d0d575050565b601f016020900490600052602060002090810190611e5a91905b80821115612d3b5760008155600101612d27565b5090565b6001600160e01b031981168114611e5a57600080fd5b600060208284031215612d6757600080fd5b813561214e81612d3f565b60005b83811015612d8d578181015183820152602001612d75565b50506000910152565b60008151808452612dae816020860160208601612d72565b601f01601f19169290920160200192915050565b60208152600061214e6020830184612d96565b600060208284031215612de757600080fd5b5035919050565b6001600160a01b0381168114611e5a57600080fd5b60008060408385031215612e1657600080fd5b8235612e2181612dee565b946020939093013593505050565b600060208284031215612e4157600080fd5b813561214e81612dee565b634e487b7160e01b600052602160045260246000fd5b6000610100820190508251825260208301516020830152604083015160408301526060830151606083015260018060a01b03608084015116608083015260a083015160a083015260c083015160c083015260e083015160028110612ec857612ec8612e4c565b8060e08401525092915050565b634e487b7160e01b600052604160045260246000fd5b604051601f8201601f1916810167ffffffffffffffff81118282101715612f1457612f14612ed5565b604052919050565b600060208284031215612f2e57600080fd5b813567ffffffffffffffff811115612f4557600080fd5b8201601f81018413612f5657600080fd5b803567ffffffffffffffff811115612f7057612f70612ed5565b8060051b612f8060208201612eeb565b91825260208184018101929081019087841115612f9c57600080fd5b6020850194505b83851015612fca5784359250612fb883612dee565b82825260209485019490910190612fa3565b979650505050505050565b600080600060608486031215612fea57600080fd5b8335612ff581612dee565b9250602084013561300581612dee565b929592945050506040919091013590565b60008067ffffffffffffffff84111561303157613031612ed5565b50601f8301601f191660200161304681612eeb565b91505082815283838301111561305b57600080fd5b828260208301376000602084830101529392505050565b600080600080600060a0868803121561308a57600080fd5b853561309581612dee565b945060208601356130a581612dee565b93506040860135925060608601359150608086013567ffffffffffffffff8111156130cf57600080fd5b8601601f810188136130e057600080fd5b6130ef88823560208401613016565b9150509295509295909350565b60008060008060008060c0878903121561311557600080fd5b863561312081612dee565b95506020870135945060408701359350606087013561313e81612dee565b92506080870135915060a087013561315581612dee565b809150509295509295509295565b8015158114611e5a57600080fd5b6000806040838503121561318457600080fd5b823561318f81612dee565b9150602083013561319f81613163565b809150509250929050565b600080600080608085870312156131c057600080fd5b84356131cb81612dee565b935060208501356131db81612dee565b925060408501359150606085013567ffffffffffffffff8111156131fe57600080fd5b8501601f8101871361320f57600080fd5b61321e87823560208401613016565b91505092959194509250565b6000806040838503121561323d57600080fd5b823561324881612dee565b9150602083013561319f81612dee565b602080825282518282018190526000918401906040840190835b81811015613290578351835260209384019390920191600101613272565b509095945050505050565b600060c082019050825182526020830151602083015260018060a01b0360408401511660408301526060830151606083015260018060a01b03608084015116608083015260a0830151600381106132f4576132f4612e4c565b8060a08401525092915050565b600181811c9082168061331557607f821691505b60208210810361333557634e487b7160e01b600052602260045260246000fd5b50919050565b634e487b7160e01b600052603260045260246000fd5b634e487b7160e01b600052601160045260246000fd5b80820281158282048414176107ba576107ba613351565b808201808211156107ba576107ba613351565b6000602082840312156133a357600080fd5b815161214e81612dee565b60208082526010908201526f3737ba103232bb34b1b29037bbb732b960811b604082015260600190565b600060408284031280156133eb57600080fd5b506040805190810167ffffffffffffffff8111828210171561340f5761340f612ed5565b604052825161341d81612dee565b81526020928301519281019290925250919050565b818103818111156107ba576107ba613351565b60008261346257634e487b7160e01b600052601260045260246000fd5b500490565b60006001820161347957613479613351565b5060010190565b601f82111561104657806000526020600020601f840160051c810160208510156134a75750805b601f840160051c820191505b8181101561245c57600081556001016134b3565b815167ffffffffffffffff8111156134e1576134e1612ed5565b6134f5816134ef8454613301565b84613480565b6020601f82116001811461352957600083156135115750848201515b600019600385901b1c1916600184901b17845561245c565b600084815260208120601f198516915b828110156135595787850151825560209485019460019092019101613539565b50848210156135775786840151600019600387901b60f8161c191681555b50505050600190811b01905550565b6001600160a01b0385811682528416602082015260408101839052608060608201819052600090612c0490830184612d96565b6000602082840312156135cb57600080fd5b815161214e81612d3f565b634e487b7160e01b600052603160045260246000fd5b6000602082840312156135fe57600080fd5b815161214e81613163565b6000825161361b818460208701612d72565b919091019291505056fea264697066735822122006340042697b4963188e97952c965aecbd3d7841583a0577c5cf5800c1ed2a9264736f6c634300081a0033","linkReferences":{}},"methodIdentifiers":{"MAX_POINTS()":"25f87d23","NATIVE_TOKEN()":"31f7d964","PRODUCT_FACTORY()":"63ca2ffe","addRentCurrencies(address[])":"3e844b88","approve(address,uint256)":"095ea7b3","balanceOf(address)":"70a08231","delist(address)":"6b2cc75c","endLease(address)":"e05aa510","getAccessesByDevice(address)":"d55c1325","getApproved(uint256)":"081812fc","getDeviceBinding(address)":"7741139f","getDeviceByAccessId(uint256)":"d0ed7851","getListingInfo(address)":"f1908a04","getRentalInfo(address)":"1320a8cb","isAccessible(address,address)":"c1898c18","isApprovedForAll(address,address)":"e985e9c5","list(address,uint256,uint256,address,uint256,address)":"aa242a60","name()":"06fdde03","owner()":"8da5cb5b","ownerOf(uint256)":"6352211e","payRent(address,uint256)":"202e5e10","relist(address,uint256,uint256,address,uint256,address)":"7bc2c4bc","removeRentCurrencies(address[])":"1f162d20","renounceOwnership()":"715018a6","rent(address,address,uint256,uint256,string)":"3271bec0","safeTransferFrom(address,address,uint256)":"42842e0e","safeTransferFrom(address,address,uint256,bytes)":"b88d4fde","setApprovalForAll(address,bool)":"a22cb465","setFeePoints(uint256)":"0d831203","setTreasury(address)":"f0f44260","supportedRentCurrencies(address)":"a451a0a1","supportsInterface(bytes4)":"01ffc9a7","symbol()":"95d89b41","tokenByIndex(uint256)":"4f6ccce7","tokenOfOwnerByIndex(address,uint256)":"2f745c59","tokenURI(uint256)":"c87b56dd","totalSupply()":"18160ddd","transferFrom(address,address,uint256)":"23b872dd","transferOwnership(address)":"f2fde38b","withdraw(address)":"51cff8d9"},"id":1}