{"abi":[{"type":"constructor","inputs":[{"name":"initialOwner","type":"address","internalType":"address"},{"name":"application","type":"address","internalType":"address"},{"name":"rentCurrencies","type":"address[]","internalType":"address[]"},{"name":"treasury","type":"address","internalType":"address payable"},{"name":"feePoints","type":"uint256","internalType":"uint256"}],"stateMutability":"nonpayable"},{"type":"function","name":"APPLICATION","inputs":[],"outputs":[{"name":"","type":"address","internalType":"contract IApplication"}],"stateMutability":"view"},{"type":"function","name":"MAX_POINTS","inputs":[],"outputs":[{"name":"","type":"uint256","internalType":"uint256"}],"stateMutability":"view"},{"type":"function","name":"NATIVE_TOKEN","inputs":[],"outputs":[{"name":"","type":"address","internalType":"address"}],"stateMutability":"view"},{"type":"function","name":"addRentCurrencies","inputs":[{"name":"rentCurrencies","type":"address[]","internalType":"address[]"}],"outputs":[],"stateMutability":"nonpayable"},{"type":"function","name":"delist","inputs":[{"name":"device","type":"address","internalType":"address"}],"outputs":[],"stateMutability":"nonpayable"},{"type":"function","name":"endLease","inputs":[{"name":"device","type":"address","internalType":"address"}],"outputs":[],"stateMutability":"nonpayable"},{"type":"function","name":"getListingInfo","inputs":[{"name":"device","type":"address","internalType":"address"}],"outputs":[{"name":"","type":"tuple","internalType":"struct IMarketplaceStructs.ListingInfo","components":[{"name":"owner","type":"address","internalType":"address"},{"name":"minRentalDays","type":"uint256","internalType":"uint256"},{"name":"maxRentalDays","type":"uint256","internalType":"uint256"},{"name":"rentCurrency","type":"address","internalType":"address"},{"name":"dailyRent","type":"uint256","internalType":"uint256"},{"name":"rentRecipient","type":"address","internalType":"address payable"},{"name":"status","type":"uint8","internalType":"enum IMarketplaceStructs.ListingStatus"}]}],"stateMutability":"view"},{"type":"function","name":"getRentalInfo","inputs":[{"name":"device","type":"address","internalType":"address"}],"outputs":[{"name":"","type":"tuple","internalType":"struct IMarketplaceStructs.RentalInfo","components":[{"name":"accessId","type":"uint256","internalType":"uint256"},{"name":"startTime","type":"uint256","internalType":"uint256"},{"name":"endTime","type":"uint256","internalType":"uint256"},{"name":"rentalDays","type":"uint256","internalType":"uint256"},{"name":"rentCurrency","type":"address","internalType":"address"},{"name":"dailyRent","type":"uint256","internalType":"uint256"},{"name":"totalPaidRent","type":"uint256","internalType":"uint256"},{"name":"status","type":"uint8","internalType":"enum IMarketplaceStructs.RentalStatus"}]}],"stateMutability":"view"},{"type":"function","name":"list","inputs":[{"name":"device","type":"address","internalType":"address"},{"name":"minRentalDays","type":"uint256","internalType":"uint256"},{"name":"maxRentalDays","type":"uint256","internalType":"uint256"},{"name":"rentCurrency","type":"address","internalType":"address"},{"name":"dailyRent","type":"uint256","internalType":"uint256"},{"name":"rentRecipient","type":"address","internalType":"address"}],"outputs":[],"stateMutability":"nonpayable"},{"type":"function","name":"owner","inputs":[],"outputs":[{"name":"","type":"address","internalType":"address"}],"stateMutability":"view"},{"type":"function","name":"payRent","inputs":[{"name":"device","type":"address","internalType":"address"},{"name":"rent_","type":"uint256","internalType":"uint256"}],"outputs":[],"stateMutability":"payable"},{"type":"function","name":"relist","inputs":[{"name":"device","type":"address","internalType":"address"},{"name":"minRentalDays","type":"uint256","internalType":"uint256"},{"name":"maxRentalDays","type":"uint256","internalType":"uint256"},{"name":"rentCurrency","type":"address","internalType":"address"},{"name":"dailyRent","type":"uint256","internalType":"uint256"},{"name":"rentRecipient","type":"address","internalType":"address"}],"outputs":[],"stateMutability":"nonpayable"},{"type":"function","name":"removeRentCurrencies","inputs":[{"name":"rentCurrencies","type":"address[]","internalType":"address[]"}],"outputs":[],"stateMutability":"nonpayable"},{"type":"function","name":"renounceOwnership","inputs":[],"outputs":[],"stateMutability":"nonpayable"},{"type":"function","name":"rent","inputs":[{"name":"device","type":"address","internalType":"address"},{"name":"tenant","type":"address","internalType":"address"},{"name":"rentalDays","type":"uint256","internalType":"uint256"},{"name":"prepaidRent","type":"uint256","internalType":"uint256"}],"outputs":[],"stateMutability":"payable"},{"type":"function","name":"setFeePoints","inputs":[{"name":"feePoints","type":"uint256","internalType":"uint256"}],"outputs":[],"stateMutability":"nonpayable"},{"type":"function","name":"setTreasury","inputs":[{"name":"treasury","type":"address","internalType":"address payable"}],"outputs":[],"stateMutability":"nonpayable"},{"type":"function","name":"supportedRentCurrencies","inputs":[{"name":"","type":"address","internalType":"address"}],"outputs":[{"name":"","type":"bool","internalType":"bool"}],"stateMutability":"view"},{"type":"function","name":"transferOwnership","inputs":[{"name":"newOwner","type":"address","internalType":"address"}],"outputs":[],"stateMutability":"nonpayable"},{"type":"function","name":"withdraw","inputs":[{"name":"device","type":"address","internalType":"address"}],"outputs":[],"stateMutability":"nonpayable"},{"type":"event","name":"Delist","inputs":[{"name":"owner","type":"address","indexed":true,"internalType":"address"},{"name":"device","type":"address","indexed":true,"internalType":"address"}],"anonymous":false},{"type":"event","name":"EndLease","inputs":[{"name":"device","type":"address","indexed":true,"internalType":"address"},{"name":"operator","type":"address","indexed":false,"internalType":"address"}],"anonymous":false},{"type":"event","name":"List","inputs":[{"name":"owner","type":"address","indexed":true,"internalType":"address"},{"name":"device","type":"address","indexed":true,"internalType":"address"},{"name":"minRentalDays","type":"uint256","indexed":false,"internalType":"uint256"},{"name":"maxRentalDays","type":"uint256","indexed":false,"internalType":"uint256"},{"name":"rentCurrency","type":"address","indexed":false,"internalType":"address"},{"name":"dailyRent","type":"uint256","indexed":false,"internalType":"uint256"},{"name":"rentRecipient","type":"address","indexed":false,"internalType":"address"}],"anonymous":false},{"type":"event","name":"OwnershipTransferred","inputs":[{"name":"previousOwner","type":"address","indexed":true,"internalType":"address"},{"name":"newOwner","type":"address","indexed":true,"internalType":"address"}],"anonymous":false},{"type":"event","name":"PayRent","inputs":[{"name":"device","type":"address","indexed":true,"internalType":"address"},{"name":"rent","type":"uint256","indexed":false,"internalType":"uint256"}],"anonymous":false},{"type":"event","name":"Relist","inputs":[{"name":"owner","type":"address","indexed":true,"internalType":"address"},{"name":"device","type":"address","indexed":true,"internalType":"address"},{"name":"minRentalDays","type":"uint256","indexed":false,"internalType":"uint256"},{"name":"maxRentalDays","type":"uint256","indexed":false,"internalType":"uint256"},{"name":"rentCurrency","type":"address","indexed":false,"internalType":"address"},{"name":"dailyRent","type":"uint256","indexed":false,"internalType":"uint256"},{"name":"rentRecipient","type":"address","indexed":false,"internalType":"address"}],"anonymous":false},{"type":"event","name":"Rent","inputs":[{"name":"device","type":"address","indexed":true,"internalType":"address"},{"name":"accessId","type":"uint256","indexed":true,"internalType":"uint256"},{"name":"tenant","type":"address","indexed":true,"internalType":"address"},{"name":"startTime","type":"uint256","indexed":false,"internalType":"uint256"},{"name":"endTime","type":"uint256","indexed":false,"internalType":"uint256"},{"name":"rentalDays","type":"uint256","indexed":false,"internalType":"uint256"},{"name":"prepaidRent","type":"uint256","indexed":false,"internalType":"uint256"}],"anonymous":false},{"type":"event","name":"Withdraw","inputs":[{"name":"owner","type":"address","indexed":true,"internalType":"address"},{"name":"device","type":"address","indexed":true,"internalType":"address"}],"anonymous":false},{"type":"error","name":"AddressEmptyCode","inputs":[{"name":"target","type":"address","internalType":"address"}]},{"type":"error","name":"AddressInsufficientBalance","inputs":[{"name":"account","type":"address","internalType":"address"}]},{"type":"error","name":"FailedInnerCall","inputs":[]},{"type":"error","name":"OwnableInvalidOwner","inputs":[{"name":"owner","type":"address","internalType":"address"}]},{"type":"error","name":"OwnableUnauthorizedAccount","inputs":[{"name":"account","type":"address","internalType":"address"}]},{"type":"error","name":"SafeERC20FailedOperation","inputs":[{"name":"token","type":"address","internalType":"address"}]}],"bytecode":{"object":"0x60a060405234801561001057600080fd5b5060405161218a38038061218a83398101604081905261002f9161018f565b846001600160a01b03811661005e57604051631e4fbdf760e01b81526000600482015260240160405180910390fd5b61006781610101565b506001600160a01b03841660805260005b83518110156100d357600160036000868481518110610099576100996102a3565b6020908102919091018101516001600160a01b03168252810191909152604001600020805460ff1916911515919091179055600101610078565b50600180546001600160a01b0319166001600160a01b039390931692909217909155600255506102b9915050565b600080546001600160a01b038381166001600160a01b0319831681178455604051919092169283917f8be0079c531659141344cd1fd0a4f28419497f9722a3daafe3b4186f6b6457e09190a35050565b6001600160a01b038116811461016657600080fd5b50565b805161017481610151565b919050565b634e487b7160e01b600052604160045260246000fd5b600080600080600060a086880312156101a757600080fd5b85516101b281610151565b60208701519095506101c381610151565b60408701519094506001600160401b038111156101df57600080fd5b8601601f810188136101f057600080fd5b80516001600160401b0381111561020957610209610179565b604051600582901b90603f8201601f191681016001600160401b038111828210171561023757610237610179565b60405291825260208184018101929081018b84111561025557600080fd5b6020850194505b8385101561027b5761026d85610169565b81526020948501940161025c565b50955061028e9250505060608701610169565b60809690960151949793965091949392915050565b634e487b7160e01b600052603260045260246000fd5b608051611ea16102e9600039600081816102ba01528181610a39015281816112b5015261167a0152611ea16000f3fe60806040526004361061011f5760003560e01c8063715018a6116100a0578063aa242a6011610064578063aa242a601461033a578063e05aa5101461035a578063f0f442601461037a578063f1908a041461039a578063f2fde38b146103c757600080fd5b8063715018a6146102735780637bc2c4bc1461028857806383077a1d146102a85780638da5cb5b146102dc578063a451a0a1146102fa57600080fd5b806331f7d964116100e757806331f7d964146101d35780633e844b881461020057806351cff8d914610220578063622275f0146102405780636b2cc75c1461025357600080fd5b80630d831203146101245780631320a8cb146101465780631f162d201461017c578063202e5e101461019c57806325f87d23146101af575b600080fd5b34801561013057600080fd5b5061014461013f366004611a0d565b6103e7565b005b34801561015257600080fd5b50610166610161366004611a4b565b6103f4565b6040516101739190611a7e565b60405180910390f35b34801561018857600080fd5b50610144610197366004611b07565b6104a5565b6101446101aa366004611bd7565b61050f565b3480156101bb57600080fd5b506101c561271081565b604051908152602001610173565b3480156101df57600080fd5b506101e8600081565b6040516001600160a01b039091168152602001610173565b34801561020c57600080fd5b5061014461021b366004611b07565b610685565b34801561022c57600080fd5b5061014461023b366004611a4b565b6106eb565b61014461024e366004611c03565b6107f2565b34801561025f57600080fd5b5061014461026e366004611a4b565b610c46565b34801561027f57600080fd5b50610144610cd1565b34801561029457600080fd5b506101446102a3366004611c49565b610ce5565b3480156102b457600080fd5b506101e87f000000000000000000000000000000000000000000000000000000000000000081565b3480156102e857600080fd5b506000546001600160a01b03166101e8565b34801561030657600080fd5b5061032a610315366004611a4b565b60036020526000908152604090205460ff1681565b6040519015158152602001610173565b34801561034657600080fd5b50610144610355366004611c49565b610eee565b34801561036657600080fd5b50610144610375366004611a4b565b6111ec565b34801561038657600080fd5b50610144610395366004611a4b565b611362565b3480156103a657600080fd5b506103ba6103b5366004611a4b565b61138c565b6040516101739190611cb0565b3480156103d357600080fd5b506101446103e2366004611a4b565b611462565b6103ef6114a0565b600255565b6103fc6119af565b6001600160a01b03808316600090815260056020818152604092839020835161010081018552815481526001808301549382019390935260028201549481019490945260038101546060850152600481015490941660808401529083015460a0830152600683015460c0830152600783015491929160e084019160ff9091169081111561048b5761048b611a68565b600181111561049c5761049c611a68565b90525092915050565b6104ad6114a0565b60005b815181101561050b576000600360008484815181106104d1576104d1611d1d565b6020908102919091018101516001600160a01b03168252810191909152604001600020805460ff19169115159190911790556001016104b0565b5050565b6001600160a01b038281166000908152600460208181526040808420815160e08101835281548716815260018201549381019390935260028082015492840192909252600381015486166060840152928301546080830152600583015494851660a08301529293909260c0840191600160a01b900460ff169081111561059757610597611a68565b60028111156105a8576105a8611a68565b9052506001600160a01b038416600090815260056020819052604090912090810154600382015492935090916105de9190611d49565b8382600601546105ee9190611d60565b11156106315760405162461bcd60e51b815260206004820152600d60248201526c1d1bdbc81b5d58da081c995b9d609a1b60448201526064015b60405180910390fd5b61063c8282856114cd565b836001600160a01b03167fb2f67070fde459a24bdcc585085a388cb1d0b2297027e1707689e3516304da598460405161067791815260200190565b60405180910390a250505050565b61068d6114a0565b60005b815181101561050b576001600360008484815181106106b1576106b1611d1d565b6020908102919091018101516001600160a01b03168252810191909152604001600020805460ff1916911515919091179055600101610690565b6001600160a01b03808216600090815260046020908152604080832060059092529091208154919290911633146107345760405162461bcd60e51b815260040161062890611d73565b6000600782015460ff16600181111561074f5761074f611a68565b146107905760405162461bcd60e51b815260206004820152601160248201527019195d9a58d9481a185cc81d195b985b9d607a1b6044820152606401610628565b60058201805460ff60a01b1916905581546107b790849030906001600160a01b0316611656565b6040516001600160a01b0384169033907f34d58c18c6c1df2c698ccac556acea92941ca7b99d2fccf9e3ac1852d0dec36f90600090a3505050565b6001600160a01b03841660009081526005602052604081206007015460ff16600181111561082257610822611a68565b146108615760405162461bcd60e51b815260206004820152600f60248201526e195e1a5cdd1a5b99c81c995b9d185b608a1b6044820152606401610628565b6001600160a01b038481166000908152600460208181526040808420815160e08101835281548716815260018201549381019390935260028082015492840192909252600381015486166060840152928301546080830152600583015494851660a08301529293909260c0840191600160a01b900460ff16908111156108e9576108e9611a68565b60028111156108fa576108fa611a68565b905250905060018160c00151600281111561091757610917611a68565b146109525760405162461bcd60e51b815260206004820152600b60248201526a6e6f74206c697374696e6760a81b6044820152606401610628565b8281602001511115801561096a575080604001518311155b6109ac5760405162461bcd60e51b8152602060048201526013602482015272696e76616c69642072656e74616c206461797360681b6044820152606401610628565b806080015181602001516109c09190611d49565b821015610a0f5760405162461bcd60e51b815260206004820152601960248201527f696e73756666696369656e7420707265706169642072656e74000000000000006044820152606401610628565b60405163ee1fe2ad60e01b81526001600160a01b03858116600483015286811660248301526000917f00000000000000000000000000000000000000000000000000000000000000009091169063ee1fe2ad906044016020604051808303816000875af1158015610a84573d6000803e3d6000fd5b505050506040513d601f19601f82011682018060405250810190610aa89190611d9e565b9050426000610aba8662015180611d49565b610ac49042611d60565b905060405180610100016040528084815260200183815260200182815260200187815260200185606001516001600160a01b031681526020018560800151815260200160008152602001600180811115610b2057610b20611a68565b90526001600160a01b0389811660009081526005602081815260409283902085518155908501516001808301919091559285015160028201556060850151600382015560808501516004820180546001600160a01b031916919095161790935560a08401519083015560c0830151600683015560e08301516007830180549192909160ff1916908381811115610bb857610bb8611a68565b021790555050506001600160a01b0388166000908152600560205260409020610be3908590876114cd565b6040805183815260208101839052908101879052606081018690526001600160a01b038089169185918b16907f4db5be5275bd4130429c3fee6d81dc1cc77cb1b76c7206474dbac3ace43c78b59060800160405180910390a45050505050505050565b6001600160a01b03808216600090815260046020526040902080549091163314610c825760405162461bcd60e51b815260040161062890611d73565b60058101805460ff60a01b1916600160a11b1790556040516001600160a01b0383169033907fcfdcdd2609b1db5a39336831b42e0eeab00e058f0bd702d4d2de4e7e2a3f782290600090a35050565b610cd96114a0565b610ce3600061175c565b565b6001600160a01b03808716600090815260046020526040902080549091163314610d215760405162461bcd60e51b815260040161062890611d73565b60008611610d715760405162461bcd60e51b815260206004820152601b60248201527f696e76616c6964206d696e696d756d2072656e74616c206461797300000000006044820152606401610628565b85851015610dc15760405162461bcd60e51b815260206004820152601b60248201527f696e76616c6964206d6178696d756d2072656e74616c206461797300000000006044820152606401610628565b6001600160a01b0384161580610def57506001600160a01b03841660009081526003602052604090205460ff165b610e375760405162461bcd60e51b8152602060048201526019602482015278756e737570706f727465642072656e742063757272656e637960381b6044820152606401610628565b60018101869055600281018590556003810180546001600160a01b0319166001600160a01b0386811691821790925560048301859055600583018054600160a01b6001600160a81b031990911686851690811791909117909155604080518a8152602081018a9052908101929092526060820186905260808201529088169033907fdd02a82702deb921fe48b91829443f22212a10030ee5fc9c8d97d8e36a154d379060a00160405180910390a350505050505050565b60006001600160a01b038716600090815260046020526040902060050154600160a01b900460ff166002811115610f2757610f27611a68565b14610f6b5760405162461bcd60e51b81526020600482015260146024820152731d1bdad95b88185b1c9958591e481b1a5cdd195960621b6044820152606401610628565b60008511610fbb5760405162461bcd60e51b815260206004820152601b60248201527f696e76616c6964206d696e696d756d2072656e74616c206461797300000000006044820152606401610628565b8484101561100b5760405162461bcd60e51b815260206004820152601b60248201527f696e76616c6964206d6178696d756d2072656e74616c206461797300000000006044820152606401610628565b6001600160a01b038316158061103957506001600160a01b03831660009081526003602052604090205460ff165b6110815760405162461bcd60e51b8152602060048201526019602482015278756e737570706f727465642072656e742063757272656e637960381b6044820152606401610628565b6040805160e081018252338152602081018790529081018590526001600160a01b03848116606083015260808201849052821660a082015260c08101600190526001600160a01b03808816600090815260046020818152604092839020855181549086166001600160a01b031991821617825591860151600182015592850151600280850191909155606086015160038501805491871691841691909117905560808601519284019290925560a0850151600584018054919095169181168217855560c08601519394926001600160a81b031990911690911790600160a01b90849081111561117257611172611a68565b0217905550905050611185863330611656565b60408051868152602081018690526001600160a01b038581168284015260608201859052838116608083015291519188169133917f4cadc0254e0973398f06d362f5bff507638f068c2b61f4239d78d660755e7d61919081900360a00190a3505050505050565b6001600160a01b038116600090815260056020819052604082209081015460018201549192916201518091906112229042611db7565b61122c9190611d49565b6112369190611dca565b9050428260020154108061124d5750808260060154105b61128c5760405162461bcd60e51b815260206004820152601060248201526f63616e6e6f7420656e64206c6561736560801b6044820152606401610628565b8154604051632770a7eb60e21b81526001600160a01b03858116600483015260248201929092527f000000000000000000000000000000000000000000000000000000000000000090911690639dc29fac90604401600060405180830381600087803b1580156112fb57600080fd5b505af115801561130f573d6000803e3d6000fd5b5050505060078201805460ff191690556040513381526001600160a01b038416907f7207be407e6105cf740697ec3b730c2ce7688d7e8f974698f71445b63fcbe44c9060200160405180910390a2505050565b61136a6114a0565b600180546001600160a01b0319166001600160a01b0392909216919091179055565b6113c96040805160e081018252600080825260208201819052918101829052606081018290526080810182905260a081018290529060c082015290565b6001600160a01b03828116600090815260046020818152604092839020835160e08101855281548616815260018201549281019290925260028082015494830194909452600381015485166060830152918201546080820152600582015493841660a082015292909160c0840191600160a01b900460ff169081111561145157611451611a68565b600281111561049c5761049c611a68565b61146a6114a0565b6001600160a01b03811661149457604051631e4fbdf760e01b815260006004820152602401610628565b61149d8161175c565b50565b6000546001600160a01b03163314610ce35760405163118cdaa760e01b8152336004820152602401610628565b60025460009081901580159061150b57612710600254856114ee9190611d49565b6114f89190611dca565b92506115048385611db7565b915061150f565b8391505b60048501546001600160a01b03166115ec578334146115675760405162461bcd60e51b81526020600482015260146024820152731a5b9d985b1a59081c1c995c185a59081c995b9d60621b6044820152606401610628565b8560a001516001600160a01b03166108fc839081150290604051600060405180830381858888f193505050501580156115a4573d6000803e3d6000fd5b5080156115e7576001546040516001600160a01b039091169084156108fc029085906000818181858888f193505050501580156115e5573d6000803e3d6000fd5b505b611635565b60a0860151600486015461160e916001600160a01b03909116903390856117ac565b8015611635576001546004860154611635916001600160a01b0391821691339116866117ac565b838560060160008282546116499190611d60565b9091555050505050505050565b604051637741139f60e01b81526001600160a01b03848116600483015260009182917f00000000000000000000000000000000000000000000000000000000000000001690637741139f906024016040805180830381865afa1580156116c0573d6000803e3d6000fd5b505050506040513d601f19601f820116820180604052508101906116e49190611dec565b6040516323b872dd60e01b81526001600160a01b038781166004830152868116602483015260448201839052929450909250908316906323b872dd90606401600060405180830381600087803b15801561173d57600080fd5b505af1158015611751573d6000803e3d6000fd5b505050505050505050565b600080546001600160a01b038381166001600160a01b0319831681178455604051919092169283917f8be0079c531659141344cd1fd0a4f28419497f9722a3daafe3b4186f6b6457e09190a35050565b604080516001600160a01b0385811660248301528416604482015260648082018490528251808303909101815260849091019091526020810180516001600160e01b03166323b872dd60e01b17905261180690859061180c565b50505050565b60006118216001600160a01b03841683611874565b905080516000141580156118465750808060200190518101906118449190611e1a565b155b1561186f57604051635274afe760e01b81526001600160a01b0384166004820152602401610628565b505050565b60606118828383600061188b565b90505b92915050565b6060814710156118b05760405163cd78605960e01b8152306004820152602401610628565b600080856001600160a01b031684866040516118cc9190611e3c565b60006040518083038185875af1925050503d8060008114611909576040519150601f19603f3d011682016040523d82523d6000602084013e61190e565b606091505b509150915061191e86838361192a565b925050505b9392505050565b60608261193f5761193a82611986565b611923565b815115801561195657506001600160a01b0384163b155b1561197f57604051639996b31560e01b81526001600160a01b0385166004820152602401610628565b5080611923565b8051156119965780518082602001fd5b604051630a12f52160e11b815260040160405180910390fd5b6040518061010001604052806000815260200160008152602001600081526020016000815260200160006001600160a01b03168152602001600081526020016000815260200160006001811115611a0857611a08611a68565b905290565b600060208284031215611a1f57600080fd5b5035919050565b6001600160a01b038116811461149d57600080fd5b8035611a4681611a26565b919050565b600060208284031215611a5d57600080fd5b813561192381611a26565b634e487b7160e01b600052602160045260246000fd5b6000610100820190508251825260208301516020830152604083015160408301526060830151606083015260018060a01b03608084015116608083015260a083015160a083015260c083015160c083015260e083015160028110611ae457611ae4611a68565b8060e08401525092915050565b634e487b7160e01b600052604160045260246000fd5b600060208284031215611b1957600080fd5b813567ffffffffffffffff811115611b3057600080fd5b8201601f81018413611b4157600080fd5b803567ffffffffffffffff811115611b5b57611b5b611af1565b8060051b604051601f19603f830116810181811067ffffffffffffffff82111715611b8857611b88611af1565b604052918252602081840181019290810187841115611ba657600080fd5b6020850194505b83851015611bcc57611bbe85611a3b565b815260209485019401611bad565b509695505050505050565b60008060408385031215611bea57600080fd5b8235611bf581611a26565b946020939093013593505050565b60008060008060808587031215611c1957600080fd5b8435611c2481611a26565b93506020850135611c3481611a26565b93969395505050506040820135916060013590565b60008060008060008060c08789031215611c6257600080fd5b8635611c6d81611a26565b955060208701359450604087013593506060870135611c8b81611a26565b92506080870135915060a0870135611ca281611a26565b809150509295509295509295565b81516001600160a01b03908116825260208084015190830152604080840151908301526060808401518216908301526080808401519083015260a0838101519091169082015260c082015160e082019060038110611d1057611d10611a68565b8060c08401525092915050565b634e487b7160e01b600052603260045260246000fd5b634e487b7160e01b600052601160045260246000fd5b808202811582820484141761188557611885611d33565b8082018082111561188557611885611d33565b6020808252601190820152703737ba103634b9ba34b7339037bbb732b960791b604082015260600190565b600060208284031215611db057600080fd5b5051919050565b8181038181111561188557611885611d33565b600082611de757634e487b7160e01b600052601260045260246000fd5b500490565b60008060408385031215611dff57600080fd5b8251611e0a81611a26565b6020939093015192949293505050565b600060208284031215611e2c57600080fd5b8151801515811461192357600080fd5b6000825160005b81811015611e5d5760208186018101518583015201611e43565b50600092019182525091905056fea26469706673582212209e0da7327c4b06aecedb31bd82e4efe295f1a95c586f9e9d2041b910f545b76864736f6c634300081a0033","linkReferences":{}},"methodIdentifiers":{"APPLICATION()":"83077a1d","MAX_POINTS()":"25f87d23","NATIVE_TOKEN()":"31f7d964","addRentCurrencies(address[])":"3e844b88","delist(address)":"6b2cc75c","endLease(address)":"e05aa510","getListingInfo(address)":"f1908a04","getRentalInfo(address)":"1320a8cb","list(address,uint256,uint256,address,uint256,address)":"aa242a60","owner()":"8da5cb5b","payRent(address,uint256)":"202e5e10","relist(address,uint256,uint256,address,uint256,address)":"7bc2c4bc","removeRentCurrencies(address[])":"1f162d20","renounceOwnership()":"715018a6","rent(address,address,uint256,uint256)":"622275f0","setFeePoints(uint256)":"0d831203","setTreasury(address)":"f0f44260","supportedRentCurrencies(address)":"a451a0a1","transferOwnership(address)":"f2fde38b","withdraw(address)":"51cff8d9"},"id":1}